:020000040800F2
:100000000000012015160008A1150008A31500081E
:10001000A5150008A7150008A91500080000000094
:10002000000000000000000000000000F14800088F
:10003000AB1500080000000081490008AD1500085C
:100040005D1600085D1600085D1600085D160008C4
:100050005D1600085D1600085D1600085D160008B4
:100060005D1600085D1600085D1600085D160008A4
:100070005D1600085D1600085D1600085D16000894
:100080005D1600085D1600085D1600085D16000884
:100090005D1600085D1600085D1600085D16000874
:1000A0005D1600085D1600085D1600085D16000864
:1000B0005D1600085D1600085D1600085D16000854
:1000C0005D1600085D1600085D1600085D16000844
:1000D0005D1600085D1600085D160008C5150008CD
:1000E0005D1600085D1600085D1600085D16000824
:1000F0005D1600085D1600085D1600085D16000814
:100100005D1600085D1600085D1600085D16000803
:100110005D1600085D1600085D1600085D160008F3
:100120005D1600085D1600085D1600085D160008E3
:1001300000000000000000000000000000000000BF
:1001400000000000000000000000000000000000AF
:10015000000000000000000000000000000000009F
:10016000000000000000000000000000000000008F
:10017000000000000000000000000000000000007F
:10018000000000000000000000000000000000006F
:10019000000000000000000000000000000000005F
:1001A000000000000000000000000000000000004F
:1001B000000000000000000000000000000000003F
:1001C000000000000000000000000000000000002F
:1001D000000000000000000000000000000000001F
:0401E0005FF8E0F1F3
:1001F00010B5054C237833B9044B13B10448AFF361
:1002000000800123237010BD740000200000000056
:100210000C57000808B5034B1BB103490348AFF363
:10022000008008BD00000000780000200C57000886
:1002300082B02DE9F041A4B00C4690461D463D9E8B
:100240002B93062800F28881DFE800F004263C6248
:100250007E9FB3004B2301220421C648336401F082
:10026000E3FE00220821C34801F0DEFE04F5FA7423
:1002700001222021C0486C6301F0D6FE00224FF419
:100280008051BE4801F0D0FE4046EC6324B0BDE88A
:10029000F04102B003F0ECB84A2300223364042199
:1002A000B44801F0C1FE04F5FA7401220821B148F6
:1002B00001F0BAFE00222021AF486C6301F0B4FEC9
:1002C0000122DCE73523012233640421A94801F02F
:1002D000ABFE00220821A74801F0A6FE0523B4FBCF
:1002E000F3F301226B632021A34801F09DFE00225D
:1002F0004FF48051A14801F097FE4046EC6303F0B3
:10030000B7F84D23336424B0BDE8F04102B0704724
:100310006423012233640421964801F085FE002203
:100320000821944801F080FE0122202192486C634C
:1003300001F07AFE00224FF48051904801F074FEE3
:100340000521B4FBF1F41AE03523002233640421C3
:10035000884801F069FE01220821864801F064FE08
:100360000A23B4FBF3F30022202183486B6301F0DE
:100370005BFE01224FF48051804801F055FE40465B
:10038000EC6303F075F84B23BCE76423002233646D
:100390000421784801F048FE01220821754801F047
:1003A00043FE0022202174486C6301F03DFE0122CF
:1003B000C1E711AF48223DA9384604F0CDFC4422E4
:1003C0002CA9684604F0C8FC2B9B4FF4C872214648
:1003D0000120FFF72DFF48223DA9384604F0BCFC60
:1003E00044222CA9684604F0B7FC2B9B9622214698
:1003F0000720FFF71DFF48223DA9384604F0ACFC5A
:1004000044222CA9684604F0A7FC2B9B40F6B2427C
:1004100021460420FFF70CFF48223DA9384604F08E
:100420009BFC44222CA9684604F096FC96222146A7
:1004300007202B9BFFF7FCFE4C2300223364042192
:100440004C4801F0F1FD012208214A4801F0ECFD81
:100450000022202148486C6301F0E6FD01224FF4A0
:100460008051464801F0E0FD4FF42F60EC6302F04C
:10047000FFFF48223DA9384604F06EFC44222CA917
:10048000684604F069FC2B9B962221460720FFF763
:10049000CFFE48223DA9384604F05EFC44222CA938
:1004A000684604F059FC2B9B40F6B83221460220E6
:1004B000FFF7BEFE48223DA9384604F04DFC442219
:1004C0002CA9684604F048FC2B9B96222146072065
:1004D000FFF7AEFE48223DA9384604F03DFC442219
:1004E0002CA9684604F038FC2B9B4FF4707221460F
:1004F0000020FFF79DFE48223DA9384604F02CFC61
:1005000044222CA9684604F027FC2B9B9622214606
:100510000720FFF78DFE48223DA9384604F01CFC59
:1005200044222CA9684604F017FC2B9B40F6863227
:1005300021460320FFF77CFE48223DA9384604F0FF
:100540000BFC44222CA9684604F006FC96222146A6
:1005500007202B9BFFF76CFE4B230122042105484B
:10056000336401F061FD00220821024801F05CFDC6
:1005700000247DE600080140001001400018014001
:1005800084B030B5194D85B008AC84E80F00012265
:100590004FF48061284601F047FD08A801F024FAD5
:1005A0004FF0FF3108A801F0B5F808A801F05EF996
:1005B000002204464FF48061284601F035FD642096
:1005C000A4B2B4FBF0F4C4F123042246084901A804
:1005D00004F0D8FB1E2101AA0A2000F049FB2046A6
:1005E00005B0BDE8304004B0704700BF00080140CE
:1005F0005057000884B010B502AC84E80F003523D2
:10060000044603644FF4FA7002F032FF60234FF4A3
:10061000FA70236402F02CFF4B234FF4FA7023642A
:10062000BDE8104004B002F023BF84B02DE9F043D0
:10063000A5B080462DA880E80E000DF5A27911AF77
:100640003FAC6D4655AE0FCE0FC596E80F0085E85E
:100650000F0099E80F00FFF793FF0F284FF04802B3
:100660002146384600F3418104F076FB44222EA94E
:10067000684604F071FB2D9B642241460720FFF77A
:10068000D7FD48222146384604F066FB44222EA9B5
:10069000684604F061FB2D9B4FF4487240F6B83178
:1006A0000120FFF7C5FD48222146384604F054FBDF
:1006B00044222EA9684604F04FFB2D9B642241463C
:1006C0000720FFF7B5FD48222146384604F044FBD9
:1006D00044222EA9684604F03FFB2D9B4FF416726E
:1006E00040F6B8310220FFF7A3FD482221463846E4
:1006F00004F032FB6D4644222EA9684604F02CFB20
:100700002D9B642241460720FFF792FD4822214697
:10071000384604F021FB44222EA9684604F01CFB55
:100720002D9B40F2B22241460020FFF781FD482276
:100730002146384604F010FB44222EA9684604F0F6
:100740000BFB2D9B4FF47A7241F27C510320FFF793
:100750006FFD48222146384604F0FEFA44222EA9B5
:10076000684604F0F9FA2D9B322241460720FFF734
:100770005FFD48222146384604F0EEFA44222EA9B5
:10078000684604F0E9FA2D9B40F27E4241F27C512A
:100790000020FFF74DFD48222146384604F0DCFAE0
:1007A00044222EA9684604F0D7FA2D9B40F252321B
:1007B00041F27C510320FFF73BFD48222146384699
:1007C00004F0CAFA44222EA9684604F0C5FA2D9B0B
:1007D000322241460720FFF72BFD482221463846AA
:1007E00004F0BAFA44222EA9684604F0B5FA2D9B0B
:1007F0004FF4117241460020FFF71AFD48222146AE
:10080000384604F0A9FA44222EA9684604F0A4FA56
:100810002D9B322241460720FFF70AFD4822214640
:10082000384604F099FA44222EA9684604F094FA56
:100830002D9B4FF4FA724FF47A610220FFF7F8FC17
:1008400048222146384604F087FA44222EA96846F9
:1008500004F082FA43AEFA22414607202D9BFFF7AF
:10086000E7FC0FCE0FC50FCE0FC50FCE0FC596E814
:10087000030085E8030094E80F00FFF7BBFE482261
:100880002146384604F068FA44222EA9684604F04E
:1008900063FA3222414607202D9BFFF7C9FC0DF574
:1008A000A2796D4655AE0FCE0FC596E80F0085E8CC
:1008B0000F0099E80F00FFF763FE0F284FF0480282
:1008C0002146384620DC04F047FA2EA94422684627
:1008D00004F042FA3222414607202D9BFFF7A8FC84
:1008E00025B0BDE8F04304B0704704F035FA2EA9F6
:1008F0004422684604F030FA322240F6AC5100201F
:100900002D9BFFF795FC9CE604F026FA2EA94422C5
:10091000684604F021FA322240F6AC5100202D9BAB
:10092000FFF786FCBDE7000084B070B586B00AAC66
:1009300084E80F000546446A00F0D4FE064600F045
:10094000D1FE801BB0F57A7F12D96A6A2B68DB066C
:1009500018D5944211DDA21A0E4901A804F012FA2A
:100960001E210A2001AA00F083F96B6A00F0BAFE8A
:1009700006B0BDE8704004B07047C2F57F42FF3258
:100980002244E9E7944201DA121BE5E7C4F57F440B
:10099000FF34F5E72D5700082DE9F0410021B0B0F4
:1009A000454802F061FA0821434802F05DFA3C2113
:1009B000424801F068FF3C21414801F064FF0C21EE
:1009C000404802F051FA00243F4F3E4E0122394682
:1009D0003E4802F09CFC7CB96C463D4D0FCD0FC4E7
:1009E0000FCD0FC40FCD0FC495E8030084E80300BA
:1009F00096E80F00FFF7FEFD3A4636492FA804F0AF
:100A0000C1F9384604F07AF90628DFF8AC803FD106
:100A1000314D21AC0FCD0FC40FCD0FC495E80F00A1
:100A200084E80F006C46482231460FA808F10C05F7
:100A300004F092F90FCD0FC40FCD0FC40FCD0FC42A
:100A400095E8070084E8070041F2707098E80E000E
:100A5000FFF7EBFD072238461E4904F093F94822C0
:100A6000314611A804F078F944221C49684604F084
:100A700073F94FF4FA7241F270710720D8F8003020
:100A8000FFF7D6FB4FF47A7002F0F2FC01249DE7E9
:100A90000528E4D16C460E4D0FCD0FC40FCD0FC409
:100AA0000FCD0FC495E8030084E8030096E80F001B
:100AB000FFF7A0FDCEE700BFA4190020FC1A00201C
:100AC000EC190020B01A0020F81A0020341A002077
:100AD000C01A0020385700087C1A0020A8190020EE
:100AE00070B50A46044601B101224FF480711248E4
:100AF00001F09AFA0825104E00222021304601F01C
:100B000093FA23064CBF012200224021304601F017
:100B10008BFA013D01222021304601F085FA640064
:100B200015F0FF05E4B2E7D1BDE8704001224FF4B3
:100B30008071014801F078BA0018014070B5B02406
:100B40000E4E00212046FFF7CBFF00210846FFF79D
:100B5000C7FF00211020FFF7C3FF002516F835005E
:100B600001210135FFF7BCFF802DF7D10134E4B23C
:100B7000B82C06F10106E4D170BD00BF441B002073
:100B8000082300200749002201F832000132802AA0
:100B9000FAD1013B13F0FF0301F10101F3D1FFF79B
:100BA000CDBF00BF441B0020030630B513D43F293E
:100BB00011D8012301F00705094CC908C1F107014B
:100BC000C5F10705C9B204EBC00003FA05F5435CA3
:100BD00012B12B43435430BD23EA0503FAE700BFAB
:100BE000441B00202DE9F74FA2F1200598461E4B2B
:100BF000EDB203EB051300930C23824689460C46A5
:100C000000271A4A9DF830B003FB05230193B8452D
:100C100002D103B0BDE8F08FB8F10C0F0CBF019BFF
:100C2000009BDE5D04F10803DDB2330658BFBBFA5A
:100C30008BF2214604F101044CBF5A46520950463A
:100C4000E4B2FFF7B1FFA4EB090276004245F6B229
:100C500007D14D460AF101005FFA80FA2C460137B0
:100C6000D5E7A542E1D1F9E7285C0008B4570008B0
:100C7000F7B504460D460127561E16F8013F0BB97D
:100C800003B0F0BD7A2C82BF1035EDB200243A2DAE
:100C900003D90025FFF774FF2C46009720460C234C
:100CA000294632780834FFF79DFFE4B2E5E70000FB
:100CB0002DE9F0411B4B94B018689B880F900E22D1
:100CC00000210DF14200ADF8403004F053F8164E0B
:100CD000DFF86080154F6C46154D0FCD0FC40FCD5A
:100CE0000FC40FCD0FC495E8030084E8030096E815
:100CF0000F00FFF719FE3946C8F800000EA804F0EF
:100D000061F80A210EAA0846FFF7B2FF14210A2053
:100D10000FAAFFF7ADFFFFF711FF4FF47A7002F053
:100D2000A7FBD8E73C570008EC190020F81A002070
:100D3000FC190020781A002010B501F07BF9404B17
:100D4000404C1A6A22F001021A621A6A22F0040266
:100D50001A6201F075F900228021204601F064F941
:100D6000642000F0C5FC01222046802101F05CF9DE
:100D70000021AE20FFF7B4FE0021D520FFF7B0FE22
:100D800000215020FFF7ACFE0021A820FFF7A8FEAD
:100D900000213F20FFF7A4FE0021D320FFF7A0FE93
:100DA00000210846FFF79CFE00214020FFF798FE37
:100DB00000218D20FFF794FE00211420FFF790FE04
:100DC00000212020FFF78CFE00210220FFF788FE83
:100DD0000021A120FFF784FE0021C020FFF780FE44
:100DE0000021DA20FFF77CFE00211220FFF778FEB9
:100DF00000218120FFF774FE0021EF20FFF770FE35
:100E00000021D920FFF76CFE0021F120FFF768FEDA
:100E10000021DB20FFF764FE00213020FFF760FE99
:100E20000021A420FFF75CFE0021A620FFF758FE5A
:100E30000021AF20FFF754FEBDE81040FFF7A0BE31
:100E4000001002400018014010B596B02422002185
:100E50000DA803F08FFF1422002101A803F08AFFE0
:100E6000182200210DEB020003F084FF022401226E
:100E700010230CA8CDE910230C9401F0E7F80146EB
:100E800008B172B6FEE70F23CDE90300CDE90130CA
:100E9000059001A801F0B0FA08B172B6FEE708901B
:100EA00006A8069401F064FB08B172B6FEE716B01E
:100EB00010BD000080B59AB000F0F6FBFFF7C4FF4C
:100EC0001022002111A803F055FFAC4B4FF48F51B5
:100ED0009A69AB4842F040029A619A69012602F091
:100EE00040020092009A9A69002442F010029A612E
:100EF0009A690C2502F010020192019A9A6903275F
:100F000042F004029A619A694FF0200902F004024B
:100F10000292029A9A694FF4805842F008029A614C
:100F20009B69002203F008030393039B01F07CF804
:100F300000220C21934801F077F8002220219248EA
:100F400001F072F84FF4F073CDE9113602238C48AA
:100F500011A9CDE9134300F07DFF8A4811A9CDE91D
:100F600011561394149700F075FF874811A9CDE925
:100F70001196CDE9134700F06DFF814811A9CDE925
:100F80001186CDE9134700F065FF4FF4E1337F4848
:100F90007F49C0E90445C0E90013C0E90244C0E943
:100FA000064402F00FF8054608B172B6FEE70146A6
:100FB000102206A803F0DEFE1C2229460AA8CDE96D
:100FC000045503F0D7FE4A46294611A803F0D2FE85
:100FD000704C714B2046C4E9003541F61F43C4E90B
:100FE0000555C4E90335A56001F0F4FC08B172B6FB
:100FF000FEE7204606A9CDF8188001F034FE08B1BE
:1010000072B6FEE7204601F011FD08B172B6FEE7A8
:10101000CDE9040004A9204601F028FF024608B1EA
:1010200072B6FEE76023CDE90C00CDE90A30CDE9C8
:101030000E0010900AA9204601F0B0FD08B172B66A
:10104000FEE7082220460AA901F0A8FD08B172B601
:10105000FEE74FF40053CDE91100CDE913001590E0
:10106000189011A92046169301F036FF08B172B608
:10107000FEE74FF08043494CCDE90A00C4E9003057
:101080004FF6FF73C4E903300A23CDE91170CDE9AF
:101090001360CDE91530CDE91760A060A06111A9FA
:1010A0002046199301F0EEFC08B172B6FEE7CDE9D7
:1010B0000A000AA9204601F0D9FE08B172B6FEE77F
:1010C0000023374C374A0126C4E900234FF6FF724C
:1010D000C4E903230322CDE911230A22204611A9E2
:1010E000CDE90A33CDE91363CDE91523CDE91763C3
:1010F000A360A361199201F0C5FC08B172B6FEE7C6
:10110000CDE90A000AA9204601F0B0FE054608B163
:1011100072B6FEE70146102206A803F02BFE1C2241
:1011200029460AA8CDE9045503F024FE20222946C9
:1011300011A803F01FFEA0231B4C1C4A2046C4E943
:1011400000234FF47A73C4E903358023A5606561F9
:10115000A36101F03FFC08B172B6FEE74FF4805383
:10116000204606A9069301F07EFD08B172B6FEE79F
:10117000204601F05BFCD8B172B6FEE700100240D9
:10118000001801400008014000100140341A0020FE
:1011900000480040A419002000340140FC1A00203F
:1011A000EC19002000080040B01A0020002C01407B
:1011B000CDE9040004A9204601F058FE08B172B63A
:1011C000FEE76023CDE90E00CDE90A300C901090C7
:1011D0000C2220460AA901F0E1FC08B172B6FEE734
:1011E0004FF40053CDE91100CDE91300159018908C
:1011F00011A92046169301F06FFE054608B172B69C
:10120000FEE7204600F04EF9194C1A4B20462360A9
:101210004FF46023CDE911551395A560257325750D
:10122000E3616560266100F067FC08B172B6FEE715
:101230000B23139011A92046CDE9113600F01AFBBB
:1012400008B172B6FEE7FFF777FD02F079F80021EA
:10125000094A0A4802F0B0F8094B00211860094A0F
:10126000094802F0A9F8094B186002F085F8FEE77A
:101270007C1A0020002401409057000899090008BA
:10128000A01900206C570008B10C0008AC1A00200F
:1012900070470000114B07B59A690F2142F0010217
:1012A0009A619A696FF0010002F001020092009ABF
:1012B000DA6942F08052DA61DB69002203F0805380
:1012C0000193019B00F0B4FC054A536823F0E063EE
:1012D00043F08063536003B05DF804FB00100240EC
:1012E0000000014010B5044686B01022002102A87B
:1012F00003F040FD2268104B9A421BD103F56C436A
:101300009A690E4842F400729A619A6902A902F43D
:1013100000720092009A9A6942F010029A619B69E9
:10132000022203F010030193019B0323CDE9022362
:1013300000F090FD06B010BD0024014000100140F7
:10134000102210B5044688B00DEB0200002103F016
:1013500011FD2368174A93420BD1174B9A6942F447
:1013600000629A619B6903F400630193019B08B0DA
:1013700010BD124A9342FAD10F4B11489A6904A941
:1013800042F400529A619A6902F400520292029A5F
:101390009A6942F010029A619B694FF4A07203F0BF
:1013A00010030393039B0223CDE90423079300F06A
:1013B00051FDDCE7002C01400010024000340140E8
:1013C0000010014010B504468AB01022002106A882
:1013D00003F0D0FC2368B3F1804F39D103F5043317
:1013E000DA69002442F00102DA61DA69284802F081
:1013F00001020192019A9A6906A942F004029A61D7
:101400009A6902F004020292029A9A6942F0080272
:101410009A619B69089403F008030393039B4FF4BC
:101420000043CDE9063400F015FD0823194806A94C
:10143000CDE90634089400F00DFD174A536823F4F3
:10144000407343F0E06343F4807353600AB010BD0F
:10145000124A9342FAD1124B0E48DA6906A942F0B9
:101460000402DA61DA6902F004020492049A9A69C9
:1014700042F008029A619B69C02203F008030593B9
:10148000059B0023CDE90623089300F0E3FCDDE78C
:1014900000080140000C014000000140000800402D
:1014A0000010024010B5044686B01022002102A8A8
:1014B00003F060FC2268104B9A421BD103F5644391
:1014C0009A690E4842F040029A619B694FF480424B
:1014D00003F040030193019B022302A9CDE90223FB
:1014E000059300F0B7FC064A536843F0E06343F00D
:1014F000C003536006B010BD002C0140001801402D
:101500000000014010B5044686B01022002102A858
:1015100003F030FC22681F4B9A4239D103F5E433C3
:10152000DA691D4842F48022DA61DA6902A902F41C
:1015300080220092009A9A69002442F010029A6177
:101540009B694FF4806203F010030193019B022317
:10155000CDE902230323059300F07CFC4FF40063E4
:101560000D4802A9CDE90234049400F073FC0B4A43
:1015700027205368052123F0300343F0E06343F054
:1015800010035360224600F053FB272000F082FB3B
:1015900006B010BD004800400010014000000140AE
:1015A000FEE7FEE7FEE7FEE7FEE7704708B500F05E
:1015B0008DF802F01BFF012803D0BDE8084003F0BE
:1015C00001BA08BD014801F089BD00BF341A0020EE
:1015D0000B4B0246196810B509B90A491960186819
:1015E00009490A4C0244091B8A4206D903F08AFBC6
:1015F0000C2303604FF0FF3010BD1A60FCE700BF02
:1016000090000020981F002000000120000400002E
:10161000704700000C480D490D4A002302E0D458E1
:10162000C4500433C4188C42F9D30A4A0A4C00232C
:1016300001E013600432A242FBD3FFF7E9FF03F09D
:1016400067FBFFF737FC70470000002074000020A4
:101650009063000874000020981F0020FEE700003F
:1016600038B50E4B054618784FF47A73B3FBF0F398
:101670000B4A1068B0FBF3F000F01AFB044658B9AF
:101680000F2D09D8024629464FF0FF3000F0D0FA5E
:101690002046044B1D6038BD0120FCE704000020FB
:1016A0000000002008000020074A08B51368032046
:1016B00043F01003136000F0A9FA0F20FFF7D0FFEA
:1016C000FFF7E8FD002008BD00200240034A044B5C
:1016D00011681B780B441360704700BF441F002043
:1016E00004000020014B1868704700BF441F002011
:1016F00038B50446FFF7F6FF0546631C1EBF044BD2
:101700001B78E418FFF7EEFF431BA342FAD338BD62
:1017100004000020F7B5002504460E460195FFF7AA
:10172000E1FF236807469A68D20508D50120A36A1D
:1017300084F8245043F02003A36203B0F0BD5A683C
:10174000D50503D4DB6A13F4700F40D0414B02205F
:101750001D6800F085FF22683F4B1169B5FBF0F56D
:1017600019423E4B54D1D0683D49084250D11169CD
:1017700019425ED1D26803F16E431A4214BF292385
:1017800014235D43019BAB4225D2721C5CD0002E1A
:1017900055D1019BAB4257D2A36A43F00403A36225
:1017A00000230BE0701C13D066B923681B6813F08C
:1017B00002030CD1A26A42F00402A262032084F860
:1017C0002430BAE7FFF78EFFC01BB042EDD8226885
:1017D00013689907E6D56FF0120322681360A36AB5
:1017E00043F40073A362936803F46023B3F5602F9E
:1017F0002ED1207B00282BD1A36A23F48073A3620F
:10180000A36ADB0424D4A36A43F00103A36294E730
:101810001169194203D1D168124B19420BD01169D9
:10182000114B194209D1D2681A4214BFFC23542328
:10183000A7E72923A5E75423A3E7FC23A1E7FFF7A4
:1018400051FFC01BB042A4D8019B0133019399E71B
:10185000002072E7000000202449922492244912BB
:101860002449920092244900499224000368D86CCC
:1018700070470000002373B5019390F824300446AC
:10188000012B6CD0012380F824304D680268062DAE
:10189000086805EB850322D81F26556B053B9E4043
:1018A00025EA060500FA03F32B43536309288B68E6
:1018B00000EB40054FF0070129D9D6681E3DA9402D
:1018C00026EA0101AB400B43D360A0F11003012BCA
:1018D00025D90020002384F8243002B070BD0C2DDF
:1018E0004FF01F0509D8166B233B9D4026EA0505DE
:1018F00000FA03F32B431363D8E7D66A413B9D40BC
:1019000026EA050500FA03F32B43D362CEE71069FC
:10191000A94020EA0101AB400B431361D9E7114B09
:101920009A4216D193681B02D3D49368102843F4CB
:1019300000039360CDD10C4B0C4A1B68B3FBF2F251
:101940000A2353430193019B002BC2D0019B013B0F
:10195000F8E7A36A012043F02003A362BAE702205C
:10196000BBE700BF002401400000002040420F0000
:10197000002337B50193036804469A68D20702D55D
:10198000002003B030BD9A6842F001029A60144B07
:10199000144A1B68B3FBF2F30193019BE3B9FFF711
:1019A000A1FE054623689B68DB07E9D4FFF79AFE92
:1019B000401B0228F6D923689B6813F00103F1D17C
:1019C000A26A012042F01002A262E26A84F8243086
:1019D00042F00102E262D4E7019B013BDCE700BF79
:1019E0000000002040420F0010B590F8243004465B
:1019F000012B54D0012380F82430FFF7B9FF0028D1
:101A000049D1A36A274A23F4407323F0010343F426
:101A10008073A3622368934204D123494A6812F475
:101A2000702F2ED1A26A22F48012A2625A68520547
:101A300041BFA26A22F4405242F48052A262A26ADA
:101A400012F480521CBFE26A22F00602E262002217
:101A500084F824206FF002021A609A6802F460226F
:101A6000B2F5602F13D10F4A934205D1A2F58062DF
:101A7000526812F4702F0AD19A6842F4A0029A6058
:101A800010BDA26A42F48012A2624A68CFE79A6847
:101A900042F48012F3E7002384F82430F0E70220B8
:101AA000EEE700BF002801400024014038B503687C
:101AB00004469A68D10701D4002038BD9A6822F004
:101AC00001029A60FFF70EFE054623689B68DB075C
:101AD000F2D5FFF707FE401B0228F6D923689B6862
:101AE000DA07F2D5A36A012043F01003A362E36A88
:101AF00043F00103E362E0E7F8B50446002877D03D
:101B0000836A23B9C36280F82430FFF7EBFB2046D9
:101B1000FFF7CCFFA36A13F010036BD1002869D143
:101B2000A26A374E22F4885222F0020242F00202E8
:101B3000A262D4E90021B242E56904D1B5F5402F93
:101B400008BF4FF40025267B41EA46012943A568DA
:101B5000B5F5807F37D0012D0CBF4FF4807C4FF05E
:101B6000000C277D012F06D17EBBA769013F4CEAFF
:101B7000473646F4006C5668B5F5807F26F4694612
:101B800046EA0C06566097681E4E06EA070646EAC5
:101B90000106966001D0012D02D12369013B1B058E
:101BA000D56A25F470052B43D3629268164B134017
:101BB000994213D10023E362A36A23F0030343F0A5
:101BC0000103A362F8BDAC46CBE7A66A46F0200647
:101BD000A662E66A46F00106E662CCE7A36A23F055
:101BE000120343F01003A362E36A43F00103E362CC
:101BF0000120E7E7A36A43F01003A362F8E700BF00
:101C0000003C0140FDF7E1FFFE0E1FFF0749030204
:101C1000CA6803F4E06322F4E0621204120C134376
:101C200043F0BF6343F40033CB60704700ED00E046
:101C3000164B30B5DC68C4F30224C4F10703251D3C
:101C4000042B28BF0423062D4FF0FF3598BF002436
:101C500005FA03F388BF033C21EA0303A34005FA16
:101C600004F422EA0402002843EA0203ACBF00F1B4
:101C70006040074A4FEA0313DBB2ABBF00F5614097
:101C800000F00F0080F80033135430BD00ED00E089
:101C900014ED00E0002808DB0123420900F01F00DA
:101CA00003FA00F0014B43F82200704700E100E026
:101CB0000138B0F1807F0AD2F021064B064A586005
:101CC00082F823100020072298601A6070470120D4
:101CD000704700BF10E000E000ED00E090F8213018
:101CE000022B06D004238363002380F820300120D8
:101CF000704703681A6822F00E021A601A6822F010
:101D000001021A600123D0E90F218B4053604FF488
:101D1000807303840020704708B590F82130022BAF
:101D200003D004238363012008BD036843491A6874
:101D300022F00E021A601A6822F001021A60404A6C
:101D4000934241D98B4238D014318B4237D0143171
:101D50008B4236D014318B4223D014318B4223D0A6
:101D600014318B4223D0934224D002F56272934205
:101D700023D01432934222D01432934221D0143211
:101D8000934214BF4FF480334FF480532D4A536075
:101D90004FF480730384436B002B4DD09847002091
:101DA000C2E74FF48053F1E74FF48033EEE74FF48E
:101DB0008013EBE74FF08073E8E70123E6E7102399
:101DC000E4E74FF48073E1E78B422ED01E498B424B
:101DD0002DD014318B422CD014318B4219D01431B8
:101DE0008B4219D014318B4219D093421AD0174A22
:101DF00093421AD01432934219D01432934218D01D
:101E00001432934214BF4FF480334FF48053104A7E
:101E1000BDE74FF48053FAE74FF48033F7E74FF410
:101E20008013F4E74FF08073F1E70123EFE710230D
:101E3000EDE74FF48073EAE7184675E708000240C3
:101E400080000240000402401C00024008040240DE
:101E5000000002402DE9F74F002216466B4F6C4BF5
:101E6000DFF8B4C1DFF8B4E10C6834FA06F502D14A
:101E700003B0BDE8F08F4FF0010808FA06F804EA55
:101E8000080538EA040440F082804C68032C07D827
:101E9000013C022C00F28D80DFE804F09EA3A90033
:101EA000122C00F0A18074D8112C00F09780FF2D27
:101EB00098BF82464FF00F0988BF00F1040A4FEA2D
:101EC0008604DAF8008088BF203C09FA04FB28EA7F
:101ED0000B0802FA04F448EA0404CAF80040D1F8F6
:101EE00004A01AF0805F52D0BC6926F0030844F0C9
:101EF0000104BC61BC6908F1804804F0010401944C
:101F000008F5803806F0030B019C4FEA8B0BD8F8DC
:101F1000084009FA0BF924EA09093E4CA0426AD0AC
:101F200004F58064A04268D004F58064A04266D0C5
:101F300004F58064A04264D004F58064A04262D0BD
:101F400060450CBF0524062404FA0BF444EA090496
:101F5000C8F808401C681AF4803F14BF2C43AC43F7
:101F60001C605C681AF4003F14BF2C43AC435C60F7
:101F70009C681AF4801F14BF2C43AC439C60DC683F
:101F80001AF4001F14BF254324EA0505DD6001365D
:101F90006AE774450DD018D8DFF884904C4508D016
:101FA00009F570294C4504D0A9F580194C457FF4FA
:101FB0007EAF8A68EAB1012A08BFC0F810804FF0EE
:101FC000080218BFC0F8148071E7DFF858904C453C
:101FD000EFD009F58039E9E7CA6868E7CA680432D2
:101FE00065E7CA68083262E7CA680C325FE7002218
:101FF0005DE704225BE70024A6E70124A4E70224AE
:10200000A2E70324A0E704249EE700BF00100240DB
:102010000004014000080140001C014000002210A3
:1020200000001210000031100AB10161704709046C
:10203000FBE700000122014B1A60704720000E42AE
:102040000022014B1A60704720000E422DE9F34137
:10205000054638B30368DB0710D42B689F075ED4AE
:102060002B68190700F195802B685A0700F1BF8093
:10207000E869002840F02C81002029E08F4C63683B
:1020800003F00C03042B07D0636803F00C03082B48
:102090000AD16368DE0307D523689C03DDD56B682E
:1020A000002BDAD1012013E06B68B3F5803F12D129
:1020B000236843F480332360FFF714FB064623684C
:1020C0009803CAD4FFF70EFB801B6428F7D90320BE
:1020D00002B0BDE8F0819BB9236823F4803323600C
:1020E000236823F480232360FFF7FCFA0646236865
:1020F0009903B2D5FFF7F6FA801B6428F7D9E6E713
:10210000B3F5A02F236803D143F480232360CFE7E6
:1021100023F480332360236823F48023CBE7674CC8
:10212000636813F00C0F07D0636803F00C03082BEF
:1021300010D16368DA030DD423689B0702D52B699D
:10214000012BAFD123686A6923F0F80343EAC20385
:10215000236085E72A695A4B6AB101221A60FFF7AA
:10216000C1FA064623689F07ECD4FFF7BBFA801B31
:102170000228F7D9ABE71A60FFF7B4FA06462368DE
:1021800098077FF56DAFFFF7ADFA801B0228F6D9EF
:102190009DE7AA69494E4B4BDAB101221A60FFF75D
:1021A000A1FA0446736A9B070DD54FF4FA52464BC9
:1021B0001B68B3FBF2F3019300BF019B5A1E01920F
:1021C000002BF9D150E7FFF78DFA001B0228E9D95F
:1021D0007DE71A60FFF786FA0446736A9F077FF56A
:1021E00043AFFFF77FFA001B0228F6D96FE7334CA5
:1021F000E369D80024D40127E36943F08053E36105
:10220000E36903F080530093009B304E3368D90597
:1022100018D5EB68012B26D1236A43F00103236212
:10222000FFF760FA41F288380646236A9B073FD5DC
:10223000002F3FF41DAFE36923F08053E36117E7FC
:102240000027E2E7336843F480733360FFF74AFA0C
:1022500080463368DA05DCD4FFF744FAA0EB0800C7
:102260006428F6D933E7ABB9236A41F2883823F002
:1022700001032362236A23F004032362FFF732FA87
:102280000646236A9807D3D5FFF72CFA801B4045F2
:10229000F7D91CE7052B236A03D143F0040323621B
:1022A000BAE723F001032362236A23F00403B6E7AD
:1022B000FFF718FA801B4045B7D908E70010024025
:1022C00000004242800442420000002000700040B2
:1022D0002A4B5A681C4602F00C02082A3DD0002303
:1022E000274E022833602BD1FFF7FCF907462368FD
:1022F00099011FD42B6AB3F5803F05D16268A968A4
:1023000022F400320A436260696A62680B4322F475
:1023100074121343636001233360FFF7E3F905464A
:1023200023689A013FF5A8AEFFF7DCF9401B0228AD
:10233000F6D9CCE6FFF7D6F9C01B0228D7D9C6E6F6
:10234000FFF7D0F9054623689B017FF595AEFFF7AF
:10235000C9F9401B0228F6D9B9E601283FF4B8AE06
:102360005B682A6A03F4803191427FF49BAE6A6A0B
:1023700003F4701393423FF47FAE93E600100240E3
:102380006000424230B5184B87B002AC03F1100533
:10239000224618685968083303C2AB421446F7D185
:1023A00040F201231149ADF804304B6803F00C02F0
:1023B000082A17D1C3F3834206A80244DB0312F8AC
:1023C000102C0CD54B680A48C3F34043504306AA6F
:1023D000134413F8143CB0FBF3F007B030BD0548CC
:1023E0005043FAE70248F8E7306200080010024064
:1023F00000127A0000093D002DE9F0410D46044627
:1024000010B90120BDE8F081444A136803F00703C6
:102410008B4228D321688E0730D4CA0743D43F4A61
:10242000136803F00703AB4265D822683C4D12F0F5
:10243000040F6CD1130706D56B68226923F460532F
:1024400043EAC2036B60FFF79DFF6B68354AC3F335
:102450000313D35CD840344B1860344B1868FFF733
:10246000FFF80020CEE7136823F007030B43136047
:10247000136803F007038B42C3D1CBE7284B11F05D
:10248000040F1EBF5A6842F4E0625A60080742BF58
:102490005A6842F460525A605A68A06822F0F0020A
:1024A00002435A60B9E762681D4E012A33681AD1A7
:1024B00013F4003FA5D0736841F2883823F003037A
:1024C00013437360FFF70EF907467368626803F001
:1024D0000C03B3EB820FA2D0FFF704F9C01B4045F9
:1024E000F3D903208EE7022A02D113F0007FE1E73F
:1024F00013F0020FDEE7136823F007032B4313608A
:10250000136803F00703AB427FF47BAF8DE76B6882
:10251000E16823F4E0630B436B608BE7002002402B
:10252000001002401862000800000020080000208F
:10253000044B054A5B68C3F30223D35C034A10686B
:10254000D8407047001002402862000800000020B8
:10255000044B054A5B68C3F3C223D35C034A10688B
:10256000D840704700100240286200080000002098
:1025700003682DE9F341D907054620D5354CE369B9
:10258000DA0032D40127E36943F08053E361E36961
:1025900003F080530193019B2F4E3368DB0526D552
:1025A000236A13F4407336D1236A6A6823F44073B4
:1025B000134323621FB1E36923F08053E36128686A
:1025C000830706D52349AB684A6822F440421A4380
:1025D0004A6010F010001BD01E4A69695368002041
:1025E00023F480030B43536012E00027D4E73368E1
:1025F00043F480733360FFF775F880463368D8057D
:10260000CED4FFF76FF8A0EB08006428F6D90320BA
:1026100002B0BDE8F0816A6802F440729A42C3D009
:1026200001200E4A236A1060002023F440711060DC
:102630002162D907B8D5FFF755F841F28838064628
:10264000236A9A07B0D4FFF74DF8801B4045F7D9AD
:10265000DDE700BF0010024000700040400442422D
:10266000034670B53C4A86B002AD02F110062C4616
:1026700010685168083203C4B2422546F7D140F2CF
:102680000122082BADF804200AD8002B2ED0013BE4
:10269000072B5FD8DFE803F032505E2D5E5E5E2DC3
:1026A000102B57D12D4A5168136813F080731DD039
:1026B000C1F38343C90348BF516806A844BFC1F3AF
:1026C00040410918034444BF11F8141C24485268BF
:1026D0004CBFB0FBF1F0234813F8103C520200FB52
:1026E00003F303D403205B00B3FBF0F3184606B0FA
:1026F00070BD06B0BDE87040FFF744BE40F2023145
:10270000164A136A1940B1F5817F20D003F4407353
:10271000B3F5007F07D1536A49F6404213F0020334
:1027200018BF1346E2E7B3F5407F13D113684FF2A9
:10273000244213F40033F3E7FFF70AFF074B5B680B
:10274000C3F3813301335B00B0FBF3F3CEE74FF407
:102750000043CBE70023C9E73062000800100240C5
:1027600000127A0000093D00036A70B523F00103EE
:102770000362036A446882690D6822F073022A4387
:102780008D6823F002032B430E4DA84202D00E4E5B
:10279000B04210D1CE6823F008033343A84223F09F
:1027A000040302D0084DA84205D1D1E9055624F40E
:1027B000407435432C43446082614A68426303623B
:1027C00070BD00BF002C014000340140036A70B5A9
:1027D00023F480730362036A4468C2690D6822F0BF
:1027E00073022A438D6823F4007343EA0523114DD5
:1027F000A84203D005F50065A84214D1CD6823F4A2
:10280000006343EA05230B4D23F48063A84203D001
:1028100005F50065A84206D1D1E9055624F44054D7
:10282000354344EA05144460C2614A68C2630362E6
:1028300070BD00BF002C0140036A30B523F4805303
:102840000362036A4468C2690D6822F4E64242EA00
:1028500005228D6823F4005343EA0533084DA8424E
:1028600003D005F50065A84204D14D6924F48044E5
:1028700044EA85144460C2614A680264036230BD60
:10288000002C01407047034630B590F83E2090F888
:102890003F0093F8425093F84340D2B2C0B2EDB239
:1028A000E4B2C1B9012A45D1012D45D1022283F8F4
:1028B0003E2083F842201A68116A21F0010111625A
:1028C000116A41F00101002011621A68136843F097
:1028D0000103136030BD042911D101282AD1012C34
:1028E000F8D1022283F83F2083F843201A68116A46
:1028F00021F010011162116A41F01001E3E7012A91
:1029000018D1012818D1012DE4D1012CE2D10222E5
:1029100083F83E2083F83F2083F8422083F8432049
:102920001A68116A21F001011162116A41F0010176
:102930001162DCE70120CDE71046CBE7244A0368AB
:10294000904212D002F5006290420ED0B0F1804F5A
:102950000BD0A2F59832904207D002F580629042E7
:1029600003D002F5806290421DD14A6823F07003C3
:102970001343174A904212D002F5006290420ED0E3
:10298000B0F1804F0BD0A2F59832904207D002F5FB
:102990008062904203D002F58062904203D1CA68FF
:1029A00023F4407313434A6923F080031343036005
:1029B0008B68C3620B688362054B984203D003F5B2
:1029C0000063984201D10B6903630123436170479F
:1029D000002C014010B5044630B390F83D3003F0B0
:1029E000FF021BB980F83C20FEF7AAFC02232068F6
:1029F00084F83D30211DFFF7A1FF0123002084F85A
:102A0000463084F83E3084F83F3084F8403084F813
:102A1000413084F8423084F8433084F8443084F8FC
:102A2000453084F83D3010BD0120FCE710B5044668
:102A300030B390F83D3003F0FF021BB980F83C2022
:102A4000FFF720FF0223206884F83D30211DFFF7A7
:102A500075FF0123002084F8463084F83E3084F866
:102A60003F3084F8403084F8413084F8423084F8B4
:102A7000433084F8443084F8453084F83D3010BD4C
:102A80000120FCE7F8B50D46044600284DD090F82B
:102A90003D3003F0FF021BB980F83C20FEF792FCAA
:102AA0000223214684F83D3051F8040B836823F457
:102AB000804323F007038360FFF740FF20682B6803
:102AC00086688269A9681E43AB6922F4407222F0CD
:102AD000030241EA0323134323F47C422B69E9698F
:102AE0001B0143EA0123E968076A0B43296A22F0C4
:102AF000FC0243EA01331343696927F022026F683D
:102B0000866047EA011783611743012307620020AB
:102B100084F8463084F83E3084F83F3084F8423000
:102B200084F8433084F83D30F8BD0120FCE7000014
:102B3000036A70B523F010030362036A4468826974
:102B40000D6822F4E64242EA05228D6823F0200354
:102B500043EA0513104DA84203D005F50065A842CD
:102B600014D1CD6823F0800343EA05130A4D23F006
:102B70004003A84203D005F50065A84206D1D1E97B
:102B8000055624F44064354344EA85044460826178
:102B90004A688263036270BD002C014038B590F82A
:102BA0003C300446012B52D00123082A80F83C30E7
:102BB0003CD006D8C2B1042A27D0002084F83C00BB
:102BC00038BD0C2AF9D10068FFF736FE2368096981
:102BD000DA6942F40062DA61DA6922F48062DA6169
:102BE000DA6942EA012230E00068FFF7BDFD2368A0
:102BF00009699A6942F008029A619A6922F004020E
:102C00009A619A690A439A61D7E70068FFF790FFD3
:102C1000236809699A6942F400629A619A6922F408
:102C200080629A619A6942EA0122ECE70068FFF744
:102C3000CDFD23680969DA6942F00802DA61DA69D0
:102C400022F00402DA61DA690A43DA61B5E70220A8
:102C5000B6E710B584680A4324F47F4442EA0322AD
:102C60002243826010BD70B590F83C300446012BC1
:102C70004FF0020027D0012384F83D00206884F83B
:102C80003C30836823F47F4323F0770383600B6831
:102C9000602B4DD032D8402B62D015D8202B03D0DA
:102CA00009D833F0100208D1826822F07002134371
:102CB00043F0070320E0302BF6D00123002084F8F6
:102CC0003D3084F83C0070BD502BF6D14A68CE6888
:102CD000016A056A21F00A0125F001050562836990
:102CE0000A4323F0F00343EA061383610262836818
:102CF00023F0700343F057038360DEE7702B0CD0A2
:102D0000B3F5005FD9D1CB68D1E90121FFF7A1FF6D
:102D10002268936843F4804308E0CB68D1E901213D
:102D2000FFF797FF2268936843F077039360C4E747
:102D30004D68CE68016A21F0100101628269036A60
:102D400022F4704223F0A00343EA051342EA06325C
:102D500082610362836823F0700343F06703CBE76B
:102D60004A68CE68016A056A21F00A0125F001056A
:102D7000056283690A4323F0F00343EA0613836183
:102D80000262836823F0700343F04703B4E710B591
:102D90000124036A01F01F018C4023EA040303624B
:102DA000036A8A401A43026210BD000010B504464F
:102DB00029B990F83E30012B1DD0012032E00429C2
:102DC00007D190F83F30012BF7D1022380F83F3034
:102DD00014E0082907D190F84030012BEDD10223EF
:102DE00080F840300AE090F84130012BE5D1022311
:102DF00080F8413002E0022380F83E300122206852
:102E0000FFF7C5FF2368154A93420CD014498B4243
:102E100009D0B3F1804F10D19A6802F00702062A58
:102E200016D1002010BD596C934241F40041596401
:102E3000F2D00B4A9342EFD0EBE70A4A9342EBD031
:102E400002F580629342E7D002F580629342E3D0BC
:102E50001A6842F001021A60E3E700BF002C01404B
:102E60000034014000040040FFF7A0BF30B590F8E7
:102E70003C300246012B4FF002002AD0136882F842
:102E80003D005C680D6824F070042C4398685C6019
:102E9000104CA34212D004F50064A3420ED0B3F14B
:102EA000804F0BD0A4F59834A34207D004F580647A
:102EB000A34203D004F58064A34204D1496820F002
:102EC0008000014399600123002082F83D3082F8A0
:102ED0003C0030BD002C014090F83C30012B1FD04D
:102EE000CB688A6823F4407313434A6823F48063F1
:102EF00013430A6823F4006313430A6923F48053DD
:102F000013434A6923F400531343CA6923F48043EB
:102F1000134302685364002380F83C30184670471E
:102F2000022070470368DA6822F49072DA605A6906
:102F300022F001025A61026B012A02BFDA6822F014
:102F40001002DA60202380F83E30002303637047CC
:102F500010B504460368C1681A6922F440520A4356
:102F60001A6182680069D9680243606921F4B0512E
:102F700021F00C0102430A43DA605A69A16922F484
:102F800040720A435A610E4A934215D1FFF7E0FAA4
:102F900019234343626820689200B3FBF2F3642272
:102FA000B3FBF2F102FB11331B013233B3FBF2F33B
:102FB00003EB0113836010BDFFF7BAFAE8E700BF27
:102FC0000038014010B5044640B390F83D3003F09E
:102FD000FF021BB980F83C20FEF794FA24232268F4
:102FE00084F83D30D368204623F40053D360FFF7C4
:102FF000AFFF236800201A6922F490421A615A69CF
:1030000022F02A025A61DA6842F40052DA60202380
:10301000206484F83D3084F83E3010BD0120FCE788
:103020007047704708B50023406AC385C384FFF723
:10303000F8FF08BD704713B590F83E30222B49D1F8
:103040008168836AB1F5805F026833D10169002924
:1030500033D15268C2F3080223F8022BC48D836275
:10306000013CA4B2C4851CBB0368DA6822F02002CC
:10307000DA60DA6822F48072DA605A6922F00102BA
:103080005A61202280F83E20026B012A1FD104637E
:10309000DA6822F01002DA601A68D20605D50194C7
:1030A0001A6801925B680193019B818DFFF7C2FF53
:1030B000002010E039B9016929B95268D2B21A70FA
:1030C000836A0133CAE7526802F07F02F7E7FEF72E
:1030D000DFF8EDE7022002B010BD0000036837B54D
:1030E0001A68044612F00F0FD9685D6908D1950679
:1030F0005FD58D065DD503B0BDE83040FFF79BBFBF
:1031000005F0010001F49075054352D0D50705D5AF
:10311000CB0542BF236C43F001032364550704D55C
:1031200018B1236C43F002032364930704D518B14C
:10313000236C43F004032364150707D501F0200333
:1031400003431EBF236C43F008032364236C53B373
:10315000920604D58B0602D52046FFF76CFF236844
:1031600020465B69256C03F0400305F008051D430C
:103170001BD0FFF7D7FE23685A69550610D55A6948
:10318000A06B22F040025A6150B1534B4363FEF7EB
:10319000C3FD40B1A06B436B03B0BDE8304018479E
:1031A0002046FFF73EFF03B030BDFFF73AFF25642E
:1031B000F9E7206B012855D1D00653D5CD0651D55E
:1031C000002101911A6801925A680192019A5A6984
:1031D00012F040022AD0A06B0268526892B2002A14
:1031E000E1D0A58D9542DED9E2858269202A15D0ED
:1031F000DA6822F48072DA605A6922F001025A61B8
:103200005A6922F040025A61202284F83E2021634C
:10321000DA6822F01002DA60FEF760FDE38DA18D1E
:10322000C91A89B22046FFF705FFBCE7E18D88B2D5
:10323000E18D89B20029B6D0A18D091A89B2002981
:10324000B1D0D86820F49070D860586920F001009F
:103250005861202084F83E002263DA6822F01002D0
:10326000DA60DFE7100626D50D0624D594F83D2058
:10327000212A98D1A168226AB1F5805F16D121690F
:10328000A1B932F8021BC1F3080159602262E28C35
:10329000013A92B2E284002A85D1DA6822F08002F3
:1032A000DA60DA6842F04002DA607CE7511C2162A1
:1032B00012785A60EBE750067FF575AF4A067FF546
:1032C00072AFDA68204622F04002DA60202384F8E8
:1032D0003D30FFF7A5FE66E725300008C2858285F0
:1032E0008162034622220020186483F83C0083F8A0
:1032F0003E201B68DA6842F48072DA605A6942F054
:1033000001025A61DA6842F02002DA60704770B454
:1033100090F83E60202E10D161B15AB190F83C4037
:10332000012C0AD0012480F83C400024046370BCC6
:10333000FFF7D4BF012070BC70470220FBE70000FC
:10334000EFF3058313B16FF005007047EFF31083BF
:10335000002BF8D1074B1868022806D1EFF3118330
:10336000002BF0D14FF0FF3070470028FAD1012236
:103370001A607047F002002010B5EFF3058313B117
:103380006FF0050010BDEFF31084002CF8D1094B4D
:103390001A68022A06D1EFF31183002BF0D14FF007
:1033A000FF30EFE7012AFAD102221A6000F0A0FDF7
:1033B0002046E7E7F0020020F0B51446002287B06F
:1033C0000B460592EFF3058252BBEFF310823ABB36
:1033D000264A1268022A02D1EFF3118202BBF8B129
:1033E00000228DF81320002C30D0216809B90DF18E
:1033F0001301A569002D08BF18256A1E372AAC469F
:103400002AD86268D20727D4666966B1B208D4E9BF
:10341000027E57B1BEF15B0F02D9246904B1EEB947
:10342000059807B0F0BD8022F1E7BEF1000FF7D19B
:103430002469002CF4D105ACCDE900C492B200F0AF
:103440002AFD01281CBF00230593E9E74FF0180C63
:1034500080220DF11301EEE70020E2E7CDE90147FC
:10346000009500F0E1FC0590DAE700BFF0020020D3
:1034700008B5EFF3058313B16FF0050008BDEFF356
:103480001083002BF8D1074B1B68022B03D1EFF3FD
:103490001183002BF0D10028F0D000F07FFE002037
:1034A000ECE700BFF0020020034B0360034B0B600E
:1034B00080231360704700BF940200209400002016
:1034C000034B0360034B0B604FF480731360704732
:1034D000F4060020F40200204FF0FF3200F1080350
:1034E000C0E90223436003610023036070470023A7
:1034F0000361704743689A684B608A609A685160BC
:1035000099600368086101330360704730B50C6847
:10351000631C0AD103695A684A6091608B605960E4
:10352000036808610133036030BD00F108021346EF
:1035300052681568A542FAD9EDE70369D0E901128E
:103540008A6051605968814208BF5A600022026156
:103550001A68013A1A601868704710B5044601F0FD
:10356000D9F9A46B01F0F8F9B4FA84F0400910BD60
:10357000F8B51546026C0446866B52B9076847BB1E
:10358000406800F043FF0546676001362846A663A1
:10359000F8BD65B9806801F0DFFBA368226C1344B5
:1035A0006268A3609342F0D32368A360EDE7C0682C
:1035B00001F0D2FB226CE36851429B1A2268E3605F
:1035C00093423EBF63685B18E360022D01D116B1E0
:1035D000013E0025D9E73546D7E703461A6C084671
:1035E00010B462B1DC68596814448C4228BF196871
:1035F000DC6028BFD960D96810BC01F0ADBB10BC3D
:10360000704770B5044601F085F994F8455004F10F
:1036100024066DB2002D14DCFF2384F8453001F040
:103620009BF901F077F994F8445004F110066DB25B
:10363000002D12DCFF2384F84430BDE8704001F017
:103640008BB9636A002BE7D0304600F041FE08B129
:1036500000F0C6FE013D6DB2DCE72369002BE9D026
:10366000304600F035FE08B100F0BAFE013D6DB203
:10367000DEE7000038B50D46044640B94FF0500370
:1036800083F31188BFF36F8FBFF34F8FFEE701F015
:1036900041F9D4E90F314B432268D0185B1A134427
:1036A0006060E3600020FF23A063A26084F84430E0
:1036B00084F8453095B9236963B104F1100000F036
:1036C00007FE38B14FF08052094B1A60BFF34F8F9D
:1036D000BFF36F8F01F040F9012038BD04F11000F5
:1036E000FFF7FAFE04F12400FFF7F6FEF2E700BF51
:1036F00004ED00E037B50D461C4640B94FF05003CD
:1037000083F31188BFF36F8FBFF34F8FFEE743B989
:103710004FF0500383F31188BFF36F8FBFF34F8FC8
:10372000FEE74AB191B94FF0500383F31188BFF31C
:103730006F8FBFF34F8FFEE741B14FF0500383F31C
:103740001188BFF36F8FBFF34F8FFEE750230193B4
:10375000019B502B08D04FF0500383F31188BFF327
:103760006F8FBFF34F8FFEE70121002D08BF224668
:10377000C4E90F0584F8461020462260FFF77AFF5F
:1037800020469DF8183084F84C3003B030BD00005E
:103790002DE9FF4788461F460446019240B94FF085
:1037A000500383F31188BFF36F8FBFF34F8FFEE792
:1037B00051B9036C43B14FF0500383F31188BFF349
:1037C0006F8FBFF34F8FFEE7022F0BD1E36B012BFF
:1037D00008D04FF0500383F31188BFF36F8FBFF30E
:1037E0004F8FFEE700F002FE064650B9019B4BB139
:1037F0004FF0500383F31188BFF36F8FBFF34F8FE8
:10380000FEE700264FF00009DFF8E4A037E0019D55
:103810001DB901F0A1F8002050E016B902A800F08F
:1038200097FD01F099F800F0A7FB01F073F894F808
:103830004430FF2B08BF84F8449094F84530FF2BA8
:1038400008BF84F8459001F087F801A902A800F0AC
:103850008BFD002846D101F05DF8A26BE36B9A4224
:103860002FD101F079F8019904F1100000F0F6FC75
:103870002046FFF7C6FE00F01DFC50B3012601F004
:1038800049F8A26BE36B9A4201D3022FBFD13A46AB
:1038900041462046FFF76CFE636A1BB104F1240029
:1038A00000F016FD38B14FF08052114B1A60BFF393
:1038B0004F8FBFF36F8F01F04FF8012004B0BDE8C8
:1038C000F08701F049F82046FFF79BFE00F0F2FB7D
:1038D000D4E74FF08053CAF80030BFF34F8FBFF3E7
:1038E0006F8FCBE72046FFF78CFE00F0E3FB92E7FB
:1038F00004ED00E02DE9F843894690461F46044652
:1039000040B94FF0500383F31188BFF36F8FBFF3BB
:103910004F8FFEE751B9036C43B14FF0500383F36F
:103920001188BFF36F8FBFF34F8FFEE7022F0BD1CC
:10393000E36B012B08D04FF0500383F31188BFF3E2
:103940006F8FBFF34F8FFEE701F0C4F8EFF31186DE
:103950004FF0500383F31188BFF36F8FBFF34F8F86
:10396000A26BE36B9A4201D3022F22D194F8455007
:103970003A46494620466DB2FFF7FAFD6B1C13D15B
:10398000636A0BB901200BE004F1240000F0A0FCF5
:103990000028F7D0B8F1000FF4D00120C8F80000DB
:1039A00086F31188BDE8F88301356DB284F845507F
:1039B000E8E70020F4E700002DE9F04385B00F466A
:1039C0000446019240B94FF0500383F31188BFF3CE
:1039D0006F8FBFF34F8FFEE751B9036C43B14FF0C8
:1039E000500383F31188BFF36F8FBFF34F8FFEE750
:1039F00000F0FCFC064650B9019B4BB14FF0500360
:103A000083F31188BFF36F8FBFF34F8FFEE700265C
:103A10004FF00008DFF8DC903BE0019D1DB900F09D
:103A20009BFF002052E016B902A800F091FC00F0C4
:103A300093FF00F0A1FA00F06DFF94F84430FF2BE3
:103A400008BF84F8448094F84530FF2B08BF84F801
:103A5000458000F081FF01A902A800F085FC002844
:103A60003DD12046FFF779FD98B3019904F1240078
:103A700000F0F4FB2046FFF7C4FD00F01BFB38B953
:103A80004FF08053C9F80030BFF34F8FBFF36F8FF3
:103A9000012600F03FFFA56B002DBED03946204621
:103AA000013DFFF79AFDA563236963B104F110009E
:103AB00000F00EFC38B14FF080520E4B1A60BFF38D
:103AC0004F8FBFF36F8F00F047FF012005B0BDE8B7
:103AD000F0832046FFF795FD00F0ECFAD8E720468A
:103AE000FFF78FFD00F0E6FA2046FFF736FD0028CD
:103AF000CED096E704ED00E0002330B5064A52F838
:103B0000335002EBC3041DB942F83310606030BD7E
:103B10000133082BF3D1FAE7481F002070B50446A3
:103B20000D46164600F0F6FE94F84430FF2B04BF15
:103B3000002384F8443094F84530FF2B04BF002361
:103B400084F8453000F008FFA36B2BB932462946B4
:103B500004F1240000F09CFB2046BDE87040FFF714
:103B600050BD00002DE9F041044600F0D3FE2F4B7C
:103B70002F4D1A682F4F01321A602E68002E49D13E
:103B80002C601B68012B1FD1B84640460136FFF759
:103B9000A3FC382E08F11408F7D1DFF8C480264EB4
:103BA0004046FFF799FC3046FFF796FC2348FFF7A5
:103BB00093FC2348FFF790FC2248FFF78DFC224B33
:103BC000C3F80080214B1E601420214A1368013382
:103BD0001360204A63641168E36A8B4200FB037040
:103BE00004F1040188BF1360FFF784FC00F0B4FE09
:103BF000194B1B6863B12B68DA6AE36A9A4207D2F1
:103C00004FF08052154B1A60BFF34F8FBFF36F8F89
:103C1000BDE8F081104B1B68002BD5D12B68DA6A08
:103C2000E36A9A4298BF2C60CEE700BFBC0B00202D
:103C3000500700205C070020E80B0020040C002047
:103C4000300C00201C0C00205407002058070020D6
:103C5000CC0B0020D00B0020180C002004ED00E05D
:103C6000D40B0020064A13681968064B19B94FF0A7
:103C7000FF321A6070471268D268D2685268F8E75B
:103C800054070020FC0B00202DE9F0470D46DDE92C
:103C900009844FEA82094A460646A521206B1F4641
:103CA00001F068F8226BA9F1040991446B1E29F018
:103CB000070904F134020F3513F8011F02F8011B44
:103CC000197809B1AB42F7D1089D4FF0000A372DA2
:103CD00028BF3725201DC4E9135AE56284F843A0A4
:103CE000FFF705FCC5F1380504F11800FFF7FFFBED
:103CF000C4F854A03A46314648462461A56164623E
:103D000084F858A000F0DEFD2060B8F1000F01D06B
:103D1000C8F80040BDE8F08710B590F85930044667
:103D20003BB9006B00F0B2FF2046BDE8104000F048
:103D3000ADBF012BF9D0022B08D04FF0500383F315
:103D40001188BFF36F8FBFF34F8FFEE710BD0000E8
:103D500080B5DFF85C80124F124C134D236863B9B5
:103D6000124B1B68012BF8D94FF08053C8F8003074
:103D7000BFF34F8FBFF36F8FEEE700F0CBFDFB6813
:103D8000DE68301DFFF7D9FB2B68013B2B602368F1
:103D9000013B236000F0E0FD3046FFF7BDFFDDE7AB
:103DA000300C0020C00B0020BC0B00205C07002062
:103DB00004ED00E0F8B50546154B164E1C6830685A
:103DC0000F460430FFF7B9FB6B1C334607D137B100
:103DD000316811480431BDE8F840FFF78BBB1A6821
:103DE0006419546007D30D4A10681968BDE8F8409B
:103DF0000431FFF78BBB0A4A106819680431FFF7DA
:103E000085FB084B1A68A24288BF1C60F8BD00BF42
:103E1000440C0020500700201C0C002058070020F4
:103E200054070020FC0B002070B586B0DDE90B5470
:103E300045B94FF0500383F31188BFF36F8FBFF381
:103E40004F8FFEE744B94FF0500383F31188BFF35F
:103E50006F8FBFF34F8FFEE75C260496049E5C2EA7
:103E600008D04FF0500383F31188BFF36F8FBFF377
:103E70004F8FFEE72563022584F8595005AD019563
:103E80000A9D02940095FFF7FFFE2046FFF76AFEA9
:103E9000059806B070BD2DE9F043074685B0900047
:103EA00088461646994600F067FE0546E8B15C2054
:103EB00000F062FE0446A8B1002380F859300D9B43
:103EC000056301930C9B32464146029000933846AD
:103ED0004B46FFF7D9FE2046FFF744FE012005B010
:103EE000BDE8F083284600F0D1FE4FF0FF30F6E742
:103EF00010B5002488B007AA06A905A8CDE9054495
:103F0000FFF7D2FA059B079A0293069B1549CDE964
:103F1000004315482346FFF787FFA8B100F00AFBCE
:103F2000012813D14FF0500383F31188BFF36F8F33
:103F3000BFF34F8F4FF0FF320C4B1A600C4B1860E1
:103F40000C4B1C6000F06EFD08B010BD0130FBD1C1
:103F50004FF0500383F31188BFF36F8FBFF34F8F80
:103F6000FEE700BF41620008513D0008FC0B002045
:103F7000180C0020440C0020024A1368013313601F
:103F8000704700BFC80B0020014B1868704700BF86
:103F9000440C00202DE9F84F3B4B1B68002B6DD1E2
:103FA0003A4B1D6801351D60BDB9394B1A6812685E
:103FB00042B14FF0500383F31188BFF36F8FBFF30B
:103FC0004F8FFEE7334A1968106818601160324A53
:103FD000136801331360FFF745FE304E0024336849
:103FE0002F4FAB4210D92F4B1B68DA6A142353436F
:103FF000FB58022B28BF01242B4B1B68002B0CBF46
:1040000020460120BDE8F88FDFF88490DFF8A0A0FB
:10401000D9F800301B681BB94FF0FF333360E2E77B
:10402000D9F80030DB68D3F80CB0DBF804209542F7
:1040300001D23260D7E70BF104084046FFF77DFA62
:10404000DBF828201AB10BF11800FFF776FA1423D9
:10405000DBF82C00DAF800204146904288BFCAF80D
:10406000000003FB0070FFF745FA0E4BDBF82C2035
:104070001968CB6A9A4228BF0124C9E70B4A002479
:10408000136801331360B7E7C80B0020440C00200D
:104090005407002058070020000C0020FC0B0020D3
:1040A0005C07002050070020480C0020C40B0020B3
:1040B000D00B00202DE9F0412F4C236843B94FF07D
:1040C000500383F31188BFF36F8FBFF34F8FFEE769
:1040D00000F020FC2368013B236024682CB10024FD
:1040E00000F03AFC2046BDE8F081244B1B68002B11
:1040F000F5D0234D234EDFF8A0801DE0EB68DC688F
:10410000271D04F11800FFF718FA3846FFF715FAD3
:104110001420E36A326800FB03809342394688BF6B
:104120003360FFF7E7F9184BE26A1B68DB6A9A42D3
:1041300002D30122154B1A602B68002BDED10CB183
:10414000FFF790FD124D2C6844B101270F4EFFF789
:1041500021FF00B13760013CF9D12C600B4B1B688B
:10416000002BBCD04FF080520A4B1A60BFF34F8F28
:10417000BFF36F8F0124B3E7C80B0020BC0B0020F6
:10418000040C0020D00B002050070020480C002019
:10419000C40B002004ED00E05C07002008B540B926
:1041A0004FF080520D4B1A60BFF34F8FBFF36F8FEC
:1041B00008BD0B4B196841B14FF0500383F31188D0
:1041C000BFF36F8FBFF34F8FFEE7FFF7D5FEFFF70B
:1041D000F1FDFFF76FFF0028E2D0E9E704ED00E012
:1041E000C80B0020184BF0B51A68184B12B1012209
:1041F0001A60F0BD1A60164A14271646154D2B6832
:1042000007FB03F15458501894B1446808316468AE
:104210000A44944208BF6268446008BF42601422A6
:1042200002FB03625268D1680B4A11602B60E0E721
:1042300043B94FF0500383F31188BFF36F8FBFF37F
:104240004F8FFEE7013BDBE7C80B0020480C002046
:104250005C070020D00B00205007002010B50C4652
:1042600040B94FF0500383F31188BFF36F8FBFF352
:104270004F8FFEE7054B19681831FFF747F92046C5
:10428000BDE810400121FFF795BD00BF5007002099
:1042900038B50D46144640B94FF0500383F31188EA
:1042A000BFF36F8FBFF34F8FFEE7084B19681831CC
:1042B000FFF720F9002C214608BF2846BDE838400A
:1042C00018BF4FF0FF30FFF775BD00BF500700204B
:1042D00038B5C368DC6844B94FF0500383F31188E4
:1042E000BFF36F8FBFF34F8FFEE704F11805284629
:1042F000FFF723F9104B1B68DBB9251D2846FFF794
:104300001CF90E4A14201168E36A8B42294688BFC3
:1043100013600B4A00FB0320FFF7ECF8094BE26A3D
:104320001B68DB6A9A4285BF0120074B002018609A
:1043300038BD29460548EFE7C80B0020D00B002008
:104340005C07002050070020480C0020040C0020CF
:10435000034B1B680360034B1B684360704700BF3F
:10436000000C0020440C002070B50C46054640B9F6
:104370004FF0500383F31188BFF36F8FBFF34F8F5C
:10438000FEE741B94FF0500383F31188BFF36F8FFD
:10439000BFF34F8FFEE700F0BDFA0F4B196823689B
:1043A0005A1C10D00D482E6800686A68864201D0F9
:1043B0008A420FD9881A83420AD95B1A13442846C5
:1043C0002360FFF7C5FF002400F0C6FA204670BD49
:1043D000002323600124F7E7440C0020000C002098
:1043E0000122014B1A607047480C0020054B1B68E6
:1043F00033B1054B1B68002B0CBF02200020704717
:1044000001207047180C0020C80B002038B508B9EF
:10441000002038BD1B4B1C68844208D04FF050036D
:1044200083F31188BFF36F8FBFF34F8FFEE7236DC8
:1044300043B94FF0500383F31188BFF36F8FBFF37D
:104440004F8FFEE7E16AE26C013B91422365DFD0CA
:10445000002BDDD1251D2846FFF76FF81420E36CF3
:10446000C3F13802A261084AE36211688B4288BF37
:104470001360064A294600FB0320FFF73BF80120A2
:10448000C7E700BF50070020D00B00205C070020CA
:10449000F7B5114C00F03EFA2568BDB90F4F104E2C
:1044A0003846FFF719F83046FFF716F80D4B102184
:1044B0001F600D4B0A201E600C4A0D4B0095FFF744
:1044C00019F9206010B10B49FFF716FB03B0BDE8E6
:1044D000F04000F041BA00BF700D0020F40C002045
:1044E000080D00204C0C0020500C0020540C002023
:1044F000200D002046620008914208B5416000612D
:104500000AD8D21A83699A420DD2084B011D186845
:10451000FEF7FCFF002008BD9A4201D2994202D268
:10452000034B011DF3E70120F5E700BF500C00200D
:104530004C0C002010B588B0FFF7AAFF124B1B6887
:10454000B3B1002407AA06A905A8CDE90544FEF7E2
:10455000B7FF059B079A0293069B0C490193022320
:104560000B4800932346FFF75FFC0A4B186040B9E5
:104570004FF0500383F31188BFF36F8FBFF34F8F5A
:10458000FEE7012008B010BD700D00204B6200084E
:104590006D460008740D00207FB5164604461A4685
:1045A00040B94FF0500383F31188BFF36F8FBFF30F
:1045B0004F8FFEE70D4D286880B10529CDE9001623
:1045C00002940DDCFFF712FF0023022818BF1A46E1
:1045D000694608BF089A2868FFF7DAF804B070BD8A
:1045E00000236946FFF786F9F8E700BF700D002049
:1045F0002DE9F3414FF000081A4D2B681A6832B9C3
:10460000194A11681360296002B0BDE8F081DB68C7
:10461000DC681E68271D3846FEF78FFF636A204658
:104620009847E369012BE8D1A36933449E4206D23F
:104630003946286863602461FEF768FFDDE70023E0
:10464000324619462046CDF80080FFF7A5FF002826
:10465000D3D14FF0500383F31188BFF36F8FBFF3B3
:104660004F8FFEE74C0C0020500C00202DE9F04F3E
:10467000774EDFF8EC91B04687B03368D3F800B0DE
:10468000BBF1000F48D0DB68D3F800A0FFF774FC43
:10469000FFF77AFC6F4D04462B682F4698423DD2B7
:1046A000FFF7A6FF2C60FFF705FD4FF0000BDFF8CA
:1046B000ACA10022DAF8000002A9FFF77DF900287A
:1046C000DBD0029B0498002B72DB049C6369002BF7
:1046D00076D1FFF759FC3B680546984201D2FFF7B7
:1046E00087FF029B3D60092BE3D801A252F823F01B
:1046F000C9470008C9470008C9470008B346000871
:10470000174800083D480008C9470008C947000885
:10471000B346000817480008DA46B7E72860BBF13F
:10472000000F2AD0824541D8FFF7C4FCD8F80030EA
:10473000DB68DD68281DFEF700FFEB69012B18D14F
:10474000A9695346224628465144FFF7D5FE80B159
:1047500000235246194628460093FFF71DFF40B933
:104760004FF0500383F31188BFF36F8FBFF34F8F68
:10477000FEE728466B6A984797E7374B1B681A682D
:10478000B2FA82F25209354BAAEB04011868FFF71E
:10479000C5F9FFF78FFC002887D14FF08053C9F887
:1047A0000030BFF34F8FBFF36F8F7EE70022EAE741
:1047B000039B05999847029B002BFFF67AAF84E78D
:1047C000201DFEF7BAFE84E7A169039B2A46204616
:1047D0001944FFF791FE00283FF46BAF636A20464F
:1047E0009847E369012B7FF464AF0023A269039922
:1047F00020460A44CDF800B01946FFF7CDFE002848
:104800007FF457AF4FF0500383F31188BFF36F8FDE
:10481000BFF34F8FFEE70399A16141B94FF05003F9
:1048200083F31188BFF36F8FBFF34F8FFEE72B46E3
:104830002A4620462944FFF75FFE3AE794F82C30D9
:10484000002B7FF436AF204600F020FA31E700BF9E
:104850004C0C00201C0D0020500C0020700D00207E
:1048600004ED00E006480068006880F3088862B63E
:1048700061B6BFF34F8FBFF36F8F00DF00BF000043
:1048800008ED00E0002382B001930D4B1B6801335B
:1048900008D04FF0500383F31188BFF36F8FBFF33D
:1048A0004F8FFEE74FF0500383F31188BFF36F8FF4
:1048B000BFF34F8F019B002BFCD002B0704700BFAD
:1048C0000C0000204FF0807340F8043C054B21F0B1
:1048D000010140F8081C40F80C3C40F8202C4038FE
:1048E000704700BF8548000800000000000000007D
:1048F000074B19680868B0E8F00F80F30988BFF328
:104900006F8F4FF0000080F311884EF00D0E70474E
:10491000500700204FF0500383F31188BFF36F8FCF
:10492000BFF34F8F0A4A13680133012B13600DD177
:10493000084B1B6813F0FF0F08D04FF0500383F3B0
:104940001188BFF36F8FBFF34F8FFEE7704700BF33
:104950000C00002004ED00E0084A136843B94FF052
:10496000500383F31188BFF36F8FBFF34F8FFEE7C0
:10497000013B13600BB983F3118870470C000020D2
:10498000EFF30980BFF36F8F0D4B1A6820E9F00F2A
:1049900010602DE908404FF0500080F31188FFF7B8
:1049A00021FC4FF0000080F31188BDE80840196831
:1049B0000868B0E8F00F80F30988BFF36F8F704785
:1049C0005007002008B54FF0500383F31188BFF360
:1049D0006F8FBFF34F8FFFF7DDFA18B14FF08052A2
:1049E000024B1A60002383F3118808BD04ED00E038
:1049F0000023084A084913600B604FF47A71074B93
:104A00001B68B3FBF1F30649013B0B6007231360FE
:104A1000704700BF10E000E018E000E00000002058
:104A200014E000E013B5264B00211A78D2B20192AF
:104A3000FF221A701B78234ADBB28DF803309DF8F1
:104A4000033003F05003137007231F4A13609DF8CF
:104A500003005C1E00060CD411B1032B136011D0AF
:104A60004FF0500383F31188BFF36F8FBFF34F8F65
:104A7000FEE79DF8033001215B00DBB28DF80330C7
:104A80002346E4E74FF4407300241360019B0C4A73
:104A9000DBB213700D4B1A6842F470021A601A6888
:104AA00042F070421A60FFF7A3FF094B1C60FFF74A
:104AB000D9FEFFF797FBFFF7E5FE204602B010BDD9
:104AC00000E400E0780D00207C0D002020ED00E0E7
:104AD0000C000020EFF305830F2B0ED9104A9B5CCE
:104AE000104A12789A4208D94FF0500383F3118884
:104AF000BFF36F8FBFF34F8FFEE70B4B0B4A1B6863
:104B0000126803F4E063934208D94FF0500383F333
:104B10001188BFF36F8FBFF34F8FFEE7704700BF61
:104B2000F0E300E0780D00200CED00E07C0D0020AB
:104B300010B50F4B1A461B688342FBD354681119FA
:104B4000884201BF41681046091951604468011943
:104B50008B4207D1074909688B421FBF59681B6800
:104B6000091941609042036018BF106010BD00BF7A
:104B700090190020800D00202DE9F0410446FFF738
:104B8000FBF93B4B3B481A689C46D2B900213A4A94
:104B90003A4B55071CBF073222F007021A605960D2
:104BA000374B23F00703C3E90011991AC2E900311A
:104BB000CCF80030334B1960334B19604FF0004391
:104BC0000360076827424ED1002C3FD004F1080350
:104BD00061071CBF23F007030833002B43D02A4A88
:104BE000166890469E423ED3244A156869689942E9
:104BF00001D22868A8B9DCF80000A84233D02868A0
:104C0000C91A10291468106012D9E81842070BD08D
:104C10004FF0500383F31188BFF36F8FBFF34F8FB3
:104C2000FEE72A460546E1E741606B60FFF780FF3B
:104C30006B681449F61A1F4300230868C8F800601F
:104C4000864238BF0E6008346F602B60FFF732FA7F
:104C500063070AD04FF0500383F31188BFF36F8FBF
:104C6000BFF34F8FFEE70024F0E72046BDE8F08158
:104C7000800D002084190020840D00209019002050
:104C80007C1900208C1900208819002010B50446DA
:104C900070B3184A50F8043C1268134208D14FF020
:104CA000500383F31188BFF36F8FBFF34F8FFEE77D
:104CB00050F8081C41B14FF0500383F31188BFF343
:104CC0006F8FBFF34F8FFEE723EA020340F8043CE7
:104CD000FFF752F9084A54F8043C1168A4F108009F
:104CE0000B441360FFF724FFBDE81040FFF7E2B963
:104CF00010BD00BF84190020881900200A2200215D
:104D000000F0EEB8014B1868704700BF100000209B
:104D100070B500260C4D0D4C641BA410A64209D1A1
:104D200000F0F4FC00260A4D0A4C641BA410A642B5
:104D300005D170BD55F8043B98470136EEE755F8AC
:104D4000043B98470136F2E788630008886300084F
:104D5000886300088C6300080A44914200F1FF3325
:104D600000D1704710B511F8014B914203F8014F83
:104D7000F9D110BD03460244934200D1704703F8B5
:104D8000011BF9E70EB46FF0004100B59CB01DABFC
:104D900002900690079104910848094953F8042BA2
:104DA0000591006802A9019300F000F90022029B1E
:104DB0001A701CB05DF804EB03B0704710000020BF
:104DC0000802FFFF034611F8012B03F8012B002A0C
:104DD000F9D17047012B2DE9F047864601D0242BED
:104DE00006D9FFF78FFF162303600020BDE8F08788
:104DF0008C463A4E60461CF8014BA55D15F008053F
:104E0000F8D12D2C33D14FF001089CF8004000F16F
:104E1000020C002B5DD0102B0CD1302C0AD19CF849
:104E2000000000F0DF0058284ED110239CF801400C
:104E30000CF1020C002508F10047013FB7FBF3F924
:104E4000284603FB197AA4F13006092E18D83446F7
:104E5000A34224DD002D1FDB81451DD301D1A245D6
:104E60001ADB012500FB03401CF8014BEBE72B2C60
:104E700008BF9CF80040A84608BF00F1020CC8E734
:104E8000A4F14106192E01D8373CE1E7A4F16106EF
:104E9000192E04D8573CDBE74FF0FF35E4E7002D2F
:104EA00008DA22233846CEF80030002A9ED00CF1D2
:104EB000FF3107E0B8F1000F00D04042002A95D042
:104EC000002DF4D1116091E73024002BB2D10823DA
:104ED000B0E7302CA3D00A23ACE700BF546200082F
:104EE00013460A46014602480068FFF773BF00BF39
:104EF000100000202DE9F0478E6882469E420C4645
:104F000090461F4638D88A8912F4906F32D02568AF
:104F100009690133A5EB010965694B4405EB4505BA
:104F200005EBD5756D109D4238BF1D46530531D533
:104F3000294600F045FB064650B90C234FF0FF30E0
:104F4000CAF80030A38943F04003A381BDE8F0878D
:104F50004A462169FFF700FFA38923F4906343F0D9
:104F60008003A38126614E4426603E466561A5EB21
:104F70000905A560BE4200D93E463246414620683A
:104F800000F0B8FAA36822689B1B32440020A3609B
:104F90002260DBE72A4600F06DFB06460028E1D1DF
:104FA0005046216900F0C0FAC7E700002DE9F04F34
:104FB00098468B8907461B060D4614469DB00ED5B4
:104FC0000B6963B9402100F0FBFA2860286120B921
:104FD0000C233B604FF0FF30D1E040236B61002396
:104FE000099320238DF8293030234FF00109CDF8A3
:104FF0000C80DFF8A4818DF82A3023469A4613F8F6
:10500000012B0AB1252AF9D1BAEB040B0BD05B4670
:10501000224629463846FFF76DFF013000F0AA808E
:10502000099A5A4409929AF80030002B00F0A280A5
:1050300000234FF0FF32CDE905230AF1010A049362
:1050400007938DF853301A935446052214F8011B28
:10505000514800F041FA049AD8B9D00644BF202341
:105060008DF85330110744BF2B238DF853309AF835
:1050700000302A2B15D0544600204FF00A0C079A16
:10508000214611F8013B303B092B4ED9B0B10792B4
:1050900014E0A0EB080309FA03F31343A2460493B8
:1050A000D2E7039B191D1B680391002BBBBF5B421A
:1050B00042F0020207930793B8BF049223782E2B85
:1050C0000CD163782A2B35D1039B02341A1D1B683F
:1050D0000392002BB8BF4FF0FF330593DFF8C8A051
:1050E00003225046217800F0F7F940B14023A0EBAD
:1050F0000A0003FA00F0049B01340343049314F8FC
:10510000011B062225488DF8281000F0E5F900283B
:1051100038D0234B1BBB039B073323F00703083313
:105120000393099B3344099367E70C4601200CFB6A
:105130000232A5E700234FF00A0C1946013405930B
:10514000204610F8012B303A092A03D9002BC5D08C
:105150000591C3E7044601230CFB0121F0E703ABF3
:1051600000932A4638460F4B04A9AFF30080421C37
:105170000646D6D1AB895B063FF52CAF09981DB02A
:10518000BDE8F08F03AB00932A463846054B04A9CF
:1051900000F07CF8EBE700BF546300085E63000892
:1051A00000000000F54E00085A6300082DE9F047A2
:1051B000164699468A680B6907469342B8BF13465C
:1051C000336091F843200C46DDF820800AB10133AA
:1051D00033602368990642BF336802333360256821
:1051E00015F0060506D104F1190AE36832689B1A26
:1051F000AB4228DC94F84320131E226818BF012319
:1052000092062DD44946384604F14302C047013086
:1052100020D02368E56803F00603042B18BF00259F
:1052200032684FF00006A36808BFAD1A226908BFB4
:1052300025EAE5759342C4BF9B1AED181A34B542AE
:105240001AD1002008E00123524649463846C0479B
:10525000013003D14FF0FF30BDE8F0870135C4E7DE
:105260003020E11881F843005A1C94F8451022447C
:10527000023382F84310C5E70123224649463846E7
:10528000C0470130E6D00136D9E700002DE9FF47DD
:105290000C46277E9146782F80469A460C9904F159
:1052A000430207D8622F0AD8002F00F0D980582F68
:1052B00000F0A48004F1420684F842703AE0A7F1BD
:1052C0006303152BF6D801A050F823F025530008EE
:1052D00039530008B5520008B5520008B55200080D
:1052E000B552000839530008B5520008B5520008FD
:1052F000B5520008B5520008475400086953000829
:1053000029540008B5520008B55200086954000835
:10531000B552000869530008B5520008B55200089C
:10532000315400080B6804F142061A1D1B680A601C
:1053300084F842300123A4E0256808682E0600F1B5
:1053400004030AD505680B60002D03DA2D236D4296
:1053500084F843300A235E4819E015F0400F0568D1
:105360000B6018BF2DB2EFE70B682568181D0860A9
:10537000280601D51D6802E06906FBD51D886F2F40
:105380000CBF08230A235248002184F843106668A2
:10539000002EA8BF2168A660A4BF21F004012160EF
:1053A0000DB9002E4DD01646B5FBF3F103FB115796
:1053B000C75D06F8017D2F46BB420D46F4D9082B88
:1053C0000BD12368DF0708D5236961689942DEBFE6
:1053D000302306F8013C06F1FF36921B22614B4652
:1053E00021464046CDF800A003AAFFF7DFFE0130BA
:1053F0004CD14FF0FF3004B0BDE8F087344884F85A
:1054000045700E68236856F8045B1F060E6014D5BD
:10541000D90744BF43F0200323601DB9236823F05C
:10542000200323601023AFE7236843F020032360A9
:105430007823284884F84530E3E75E0648BFADB2DC
:10544000E6E71646BBE70B6826681D1D60690D6020
:1054500035061B6801D5186002E07106FBD518807F
:10546000002316462361BAE70B681A1D0A601E68FE
:1054700000213046626800F02FF808B1801B6060A0
:1054800063682361002384F84330A8E73246494625
:1054900040462369D0470130ABD023689B0713D423
:1054A000E068039B9842B8BF1846A4E70123324640
:1054B00049464046D04701309BD00135E368039907
:1054C0005B1AAB42F2DCEBE7002504F11906F5E7C5
:1054D0006563000876630008034610B5C9B202444C
:1054E0009342184601D1002003E0047801338C4236
:1054F000F6D110BD884210B501EB020402D98442F6
:10550000234607D8431EA14208D011F8012B03F807
:10551000012FF8E7014602448A4200D110BD13F87A
:10552000014D02F8014DF7E738B50546002943D093
:1055300051F8043C0C1F002BB8BFE41800F0D0F861
:105540001E4A1368104633B9636014602846BDE8EC
:10555000384000F0CBB8A3420AD9216862189342C0
:1055600001BF1A685B685218226063600460EDE74F
:105570001A465B680BB1A342FAD911685018A042D1
:105580000BD120680144501883421160DED11868A5
:105590005B68014411605360D8E702D90C232B608B
:1055A000D4E7206821188B4201BF19685B6809188D
:1055B000216063605460C9E738BD00BF98190020BE
:1055C000F8B5CD1C25F0030508350C2D38BF0C258A
:1055D000002D064601DBA94203D90C2333600020CD
:1055E000F8BD00F07DF821490A6814469CB9204FA7
:1055F0003B6823B92146304600F062F838602946FE
:10560000304600F05DF8431C23D10C233046336054
:1056100000F06CF8E3E723685B1B17D40B2B03D96E
:1056200023601C44256004E06368A2420CBF0B6049
:105630005360304600F05AF804F10B00231D20F0AF
:105640000700C21ACCD01B1AA350C9E722466468CF
:10565000CCE7C41C24F00304A042E3D0211A304656
:1056600000F02EF80130DDD1CFE700BF98190020FF
:105670009C190020F8B5074614460E4621B911467C
:10568000BDE8F840FFF79CBF22B9FFF74DFF254664
:105690002846F8BD00F030F8A0420FD22146384627
:1056A000FFF78EFF05460028F2D031462246FFF76D
:1056B00053FB31463846FFF737FFE9E73546E7E762
:1056C00038B50023054D044608462B60FBF780FFE4
:1056D000431C02D12B6803B1236038BD881F002012
:1056E000014800F011B800BF901F0020014800F0F1
:1056F0000CB800BF901F002051F8043C181F002B6D
:10570000BCBF0B58C018704770477047F8B500BF52
:10571000F8BC08BC9E467047F8B500BFF8BC08BC92
:045720009E467047EA
:1057240072756E6E696E67000053706565643A2524
:105734003564000025640000486920620000000010
:105744000000000000000000000000002568750D46
:105754000A00554152545F5461736B00646566617D
:10576400756C745461736B00565700080000000098
:105774000000000000000000000000000002000023
:10578400080000000000000000000000605700084E
:105794000000000000000000000000000000000005
:1057A40000020000180000000000000000000000DB
:1057B40000000000000000000000000000000000E5
:1057C4003F400000000000000000300040003000B6
:1057D4004000000009000BC03D000BC03D00090063
:1057E40018C024407FE0224031800000180024C00B
:1057F4001B000D803240018003801C4027401C8028
:10580400074000401000600000000000000000009D
:105814000000000000001F802040402000004020C5
:1058240020401F8000000000090006001F800600C1
:1058340009000000040004003F800400040000008C
:1058440000100060000000000000000004000400DC
:1058540004000400040000000000004000000000F8
:1058640000000000002001C00600380040000000D5
:105874001F802040204020401F8000000000104076
:105884003FC000400000000018C0214022402440D6
:105894001840000010802040244024401B80000059
:1058A40002000D0011003FC0014000003C80244074
:1058B40024402440238000001F802440244034409E
:1058C400038000003000200027C0380020000000C2
:1058D4001B802440244024401B8000001C0022C064
:1058E400224022401F800000000000000840000009
:1058F4000000000000000000046000000000000040
:10590400000004000A001100208040400900090042
:105914000900090009000000000040402080110037
:105924000A0004001800200023402400180000008E
:105934001F802040274029401F400000004007C02E
:1059440039000F0001C0004020403FC024402440E3
:105954001B8000001F802040204020403080000039
:1059640020403FC0204020401F80000020403FC016
:1059740024402E4030C0000020403FC024402E0070
:10598400300000000F0010802040224033800200CD
:1059940020403FC0040004003FC02040204020407D
:1059A4003FC02040204000000060202020203FC055
:1059B4002000200020403FC024400B0030C0204085
:1059C40020403FC020400040004000C03FC03C0099
:1059D40003C03C003FC0000020403FC00C402300F7
:1059E4003FC020001F802040204020401F80000036
:1059F40020403FC024402400180000001F802140A4
:105A0400214020E01FA0000020403FC02440260089
:105A140019C0004018C024402440224031800000B6
:105A2400300020403FC020403000000020003F8074
:105A3400004000403F80200020003E0001C00700DD
:105A440038002000380007C03C0007C038000000C0
:105A5400204039C0060039C02040000020003840F2
:105A640007C0384020000000304021C026403840A4
:105A740020C00000000000007FE040204020000023
:105A8400000070000C000380004000000000402073
:105A940040207FE0000000000000200040002000C3
:105AA4000000000000100010001000100010001092
:105AB4000000000040000000000000000000028020
:105AC4000540054003C0004020003FC0044004409E
:105AD40003800000000003800440044006400000EE
