:020000040800F2
:1000000000000120ED1500081D150008231500084B
:10001000291500082F1500083515000800000000FC
:100020000000000000000000000000004164000823
:100030003B15000800000000216600084715000875
:100040003516000835160008351600083516000864
:100050003516000835160008351600083516000854
:100060003516000835160008351600083516000844
:100070003516000835160008351600083516000834
:100080003516000835160008351600083516000824
:100090003516000835160008351600083516000814
:1000A0003516000835160008351600083516000804
:1000B00035160008351600083516000835160008F4
:1000C00035160008351600083516000835160008E4
:1000D00035160008351600083516000861150008A9
:1000E00035160008351600083516000835160008C4
:1000F00035160008351600083516000835160008B4
:1001000035160008351600083516000835160008A3
:100110003516000835160008351600083516000893
:100120003516000835160008351600083516000883
:1001300000000000000000000000000000000000BF
:1001400000000000000000000000000000000000AF
:10015000000000000000000000000000000000009F
:10016000000000000000000000000000000000008F
:10017000000000000000000000000000000000007F
:10018000000000000000000000000000000000006F
:10019000000000000000000000000000000000005F
:1001A000000000000000000000000000000000004F
:1001B000000000000000000000000000000000003F
:1001C000000000000000000000000000000000002F
:1001D000000000000000000000000000000000001F
:0401E0005FF8E0F1F3
:1001F00010B5054C237833B9044B13B10448AFF361
:1002000000800123237010BD740000200000000056
:10021000F473000808B5034B1BB103490348AFF35F
:10022000008008BD0000000078000020F473000882
:1002300082B080B582B000AF07F1100C8CE80C00E2
:100240000346FB710B46BB80FB79052B00F2F68061
:1002500001A252F823F000BF71020008AF020008AB
:10026000ED0200084103000895030008E9030008B7
:1002700001220421754801F049FE0022082173483B
:1002800001F044FE3B69BA885A630122202170487C
:1002900001F03CFE00224FF480516E4801F036FE22
:1002A0003B69BA88DA630A2004F072F8C7E00022DA
:1002B0000421664801F02AFE01220821634801F06A
:1002C00025FE3B69BA885A6300222021604801F06C
:1002D0001DFE01224FF480515E4801F017FE3B697C
:1002E000BA88DA630A2004F053F8A8E0BB6D3C2218
:1002F0001A6401220421554801F008FE0022082159
:10030000524801F003FE3B69BA885A63012220215A
:100310004F4801F0FBFD00224FF480514D4801F0A1
:10032000F5FD3B69BA88DA6340F2AA5004F030F870
:10033000BB6D4E221A644FF47A7004F029F87EE007
:10034000BB6D5D221A6401220421404801F0DEFDEC
:10035000002208213D4801F0D9FD3B69BA885A6363
:10036000012220213A4801F0D1FD00224FF48051B2
:10037000384801F0CBFD3B69BA88DA6340F2AA50F5
:1003800004F006F8BB6D4D221A644FF47A7003F046
:10039000FFFF54E0BB6D3C221A64002204212B486D
:1003A00001F0B4FD01220821284801F0AFFD3B69AE
:1003B000BA885A6300222021254801F0A7FD0122B6
:1003C0004FF48051234801F0A1FD3B69BA88DA63FC
:1003D00040F2AA5003F0DCFFBB6D4E221A644FF4CA
:1003E0007A7003F0D5FF2AE0BB6D5D221A6400220B
:1003F0000421164801F08AFD01220821134801F06A
:1004000085FD3B69BA885A6300222021104801F01B
:100410007DFD01224FF480510E4801F077FD3B69CC
:10042000BA88DA6340F2AA5003F0B2FFBB6D4D22E6
:100430001A644FF47A7003F0ABFF00E000BF00BF16
:100440000837BD46BDE8804002B070470008014053
:10045000001001400018014084B080B582B000AFA8
:10046000786007F1140080E80E007B681B68002BA1
:1004700009D17B694E221A644FF47A7003F088FF29
:100480007B6801221A6000BF0837BD46BDE8804086
:1004900004B0704784B080B584B000AF07F1180C89
:1004A0008CE80F00BB695B6ABB6001F01DF97860E6
:1004B00001F01AF902467B68D31AB3F57A7F31D975
:1004C000BB695B6A3B60BB691B6803F01003102BC0
:1004D00010D13A68BB689A4204DABA683B68D31A0A
:1004E000FB6017E03B68C3F57F43FF33BA681344F2
:1004F000FB600FE03A68BB689A4204DD3A68BB686B
:10050000D31AFB6006E0BB68C3F57F43FF333A684C
:100510001344FB60BB695B6ABB6001F0E5F878607F
:10052000FB68FFE718461037BD46BDE8804004B0C1
:100530007047000080B582B000AF0023FB7126E059
:10054000FB79503BDBB20021184600F02BF800216C
:10055000002000F027F80021102000F023F80023ED
:10056000BB710DE0BA79FB790D49D2000A441344FE
:100570001B780121184600F015F8BB790133BB71D7
:1005800097F90630002BEDDAFB790133FB71FB792B
:10059000072BD5D900BF00BF0837BD4680BD00BFBF
:1005A000281B002080B584B000AF03460A46FB71CB
:1005B0001346BB71BB79002B06D001224FF480712A
:1005C0001C4801F0A3FC05E000224FF4807119489B
:1005D00001F09CFC0023FB731EE000222021154843
:1005E00001F094FC97F90730002B05DA0122402135
:1005F000104801F08BFC04E0002240210D4801F07E
:1006000085FC012220210B4801F080FCFB795B0076
:10061000FB71FB7B0133FB73FB7B072BDDD90122D5
:100620004FF48071034801F071FC00BF1037BD46E4
:1006300080BD00BF0018014080B582B000AF00232C
:10064000FB7114E00023BB710AE0BA79FB790C4915
:10065000D2000A44134400221A70BB790133BB71E3
:1006600097F90630002BF0DAFB790133FB71FB7947
:10067000072BE7D9FFF75EFF00BF0837BD4680BDF7
:10068000281B002080B485B000AF0346FB710B46E9
:10069000BB7113467B710023FB7397F90730002B66
:1006A00041DBBB793F2B3ED8BB79DB08DBB2C3F122
:1006B0000703BB73BB7903F007037B737B7BC3F139
:1006C0000703012202FA03F3FB737B79002B12D09C
:1006D000FA79BB7B1649D2000A4413441878FA7998
:1006E000BB7BF97B0143C8B21149D2000A441344D1
:1006F00002461A7018E0FA79BB7B0D49D2000A4411
:1007000013441B785AB297F90F30DB435BB21340A6
:1007100059B2FA79BB7BC8B20549D2000A441344E6
:1007200002461A7000E000BF1437BD4680BC704717
:10073000281B002090B585B000AF0446084611463E
:100740001A462346FB710346BB710B467B71134669
:100750003B71BB793B737B79203B7B710023BB737F
:100760004DE03B790C2B0BD17A79B97B28481346A5
:100770005B0013449B0003440B441B78FB7307E0AE
:100780007A79BB7B234912010A4413441B78FB731B
:1007900000237B732DE097F90F30002B07DA97F8D1
:1007A0002020B979FB791846FFF76CFF0CE097F829
:1007B0002030002B0CBF01230023DBB21A46B9798D
:1007C000FB791846FFF75EFFFB7B5B00FB73BB7991
:1007D0000133BB71BA793B7BD21A3B799A4205D17E
:1007E0003B7BBB71FB790133FB7105E07B7B013304
:1007F0007B737B7B072BCED9BB7B0133BB73BA7B6F
:100800003B799A42ADD300BF00BF1437BD4690BDBF
:1008100050740008C478000880B584B002AF034665
:100820003A60FB710B46BB711FE0FB797A2B04D950
:100830000023FB71BB791033BB71BB793A2B05D90F
:100840000023FB71FB79BB71FFF7F6FE3B681A785A
:10085000B979F879012300930C23FFF76BFFFB793B
:100860000833FB713B6801333B603B681B78002B0E
:10087000DBD100BF00BF0837BD4680BD80B500AFEB
:1008800001F05CFB414B1B6A404A23F001031362F9
:100890003E4B1B6A3D4A23F00403136201F05AFBEE
:1008A000002280213A4801F031FB642000F026FF4D
:1008B00001228021364801F029FB0021AE20FFF7FC
:1008C00071FE0021D520FFF76DFE00215020FFF7BB
:1008D00069FE0021A820FFF765FE00213F20FFF7F9
:1008E00061FE0021D320FFF75DFE00210020FFF70D
:1008F00059FE00214020FFF755FE00218D20FFF713
:1009000051FE00211420FFF74DFE00212020FFF7AB
:1009100049FE00210220FFF745FE0021A120FFF73C
:1009200041FE0021C020FFF73DFE0021DA20FFF745
:1009300039FE00211220FFF735FE00218120FFF74C
:1009400031FE0021EF20FFF72DFE0021D920FFF717
:1009500029FE0021F120FFF725FE0021DB20FFF713
:1009600021FE00213020FFF71DFE0021A420FFF70B
:1009700019FE0021A620FFF715FE0021AF20FFF78A
:1009800011FEFFF759FE00BF80BD00BF00100240FE
:100990000018014080B500AF00F04EFE00F038F8BE
:1009A00000F08CFA00F060FA00F0B4F900F00AF9F7
:1009B00000F05CF900F068F8FFF760FF0A220C49CC
:1009C0000C4802F07DFF03F0D3FB0B4A00210B48DB
:1009D00003F034FC03460A4A13600A4A00210A481D
:1009E00003F02CFC0346094A136003F0F3FBFEE717
:1009F000CC1A0020381A0020B47E00080510000828
:100A0000A4190020D87E0008C1100008801A002018
:100A100080B590B000AF07F11803282200211846D6
:100A200006F0B4F83B1D00221A605A609A60DA6042
:100A30001A610223BB610123BB621023FB62002306
:100A40007B6307F11803184601F090FA0346002B68
:100A500001D000F089FB0F237B600023BB600023E3
:100A6000FB6000233B6100237B613B1D0021184696
:100A700001F0FCFC0346002B01D000F075FB00BF29
:100A80004037BD4680BD000080B596B000AF07F18D
:100A9000480300221A605A609A60DA6007F1400346
:100AA00000221A605A6007F1240300221A605A607B
:100AB0009A60DA601A615A619A613B1D2022002116
:100AC000184606F063F83D4B3D4A1A603B4BA022A6
:100AD0005A603A4B00229A60384B4FF47A72DA60CF
:100AE000364B00221A61354B00225A61334B80226B
:100AF0009A61324801F054FE0346002B01D000F009
:100B000033FB4FF48053BB6407F1480319462B486D
:100B100002F096F90346002B01D000F025FB274890
:100B200001F08DFE0346002B01D000F01DFB0023D9
:100B30003B6400237B6407F1400319461F4802F021
:100B400023FD0346002B01D000F00EFB60237B62E7
:100B50000023BB620023FB6200237B630023BB6393
:100B60000023FB6307F124030C221946134802F00B
:100B7000A9F80346002B01D000F0F6FA00237B60B1
:100B80000023BB600023FB6000233B6100237B61EB
:100B90004FF40053BB6100233B623B1D19460748DD
:100BA00002F05EFD0346002B01D000F0DDFA0348A1
:100BB00000F004FC00BF5837BD4680BD841A0020F9
:100BC000002C014080B58CB000AF07F10C0324224B
:100BD0000021184605F0DAFF3B1D00221A605A601A
:100BE000214B4FF080421A601F4B00225A601E4B6F
:100BF00000229A601C4B4FF6FF72DA601A4B0022FB
:100C00001A61194B00229A610323FB6000233B61A8
:100C100001237B610023BB610A23FB6100233B624C
:100C200001237B620023BB620A23FB6207F10C03F2
:100C300019460D4801F016FF0346002B01D000F0C5
:100C400093FA00237B600023BB603B1D19460648D6
:100C500002F09AFC0346002B01D000F085FA00BF99
:100C60003037BD4680BD00BFE01A002080B58CB093
:100C700000AF07F10C0324220021184605F086FF7F
:100C80003B1D00221A605A60204B214A1A601F4BFC
:100C900000225A601D4B00229A601C4B4FF6FF72D7
:100CA000DA601A4B00221A61184B00229A61032362
:100CB000FB6000233B6101237B610023BB610A23AE
:100CC000FB6100233B6201237B620023BB620A239A
:100CD000FB6207F10C0319460C4801F0C3FE034602
:100CE000002B01D000F040FA00237B600023BB60A2
:100CF0003B1D1946054802F047FC0346002B01D076
:100D000000F032FA00BF3037BD4680BDF019002038
:100D10000008004080B596B000AF07F148030022FC
:100D20001A605A609A60DA6007F1400300221A6084
:100D30005A6007F1240300221A605A609A60DA6050
:100D40001A615A619A613B1D20220021184605F064
:100D50001DFF434B434A1A60414B00225A60404BEF
:100D600000229A603E4B41F61F42DA603C4B002263
:100D70001A613B4B00225A61394B00229A61384874
:100D800001F00EFD0346002B01D000F0EDF94FF409
:100D90008053BB6407F148031946314802F050F80C
:100DA0000346002B01D000F0DFF92D4801F047FD8C
:100DB0000346002B01D000F0D7F900233B64002349
:100DC0007B6407F140031946254802F0DDFB03462A
:100DD000002B01D000F0C8F960237B620023BB62C6
:100DE0000023FB6200233B6300237B630023BB6380
:100DF0000023FB6307F1240300221946184801F081
:100E000061FF0346002B01D000F0AEF907F1240387
:100E100008221946124801F055FF0346002B01D065
:100E200000F0A2F900237B600023BB600023FB607D
:100E300000233B6100237B614FF40053BB6100231F
:100E40003B623B1D1946064802F00AFC0346002B94
:100E500001D000F089F900BF5837BD4680BD00BF02
:100E6000A81900200034014080B500AF114B124A90
:100E70001A60104B4FF4E1325A600E4B00229A6018
:100E80000C4B0022DA600B4B00221A61094B0C223A
:100E90005A61084B00229A61064B0022DA6105482C
:100EA00002F02FFC0346002B01D000F05DF900BFDB
:100EB00080BD00BF381A00200048004080B588B0CF
:100EC00000AF07F1100300221A605A609A60DA60DE
:100ED0003E4B9B693D4A43F0400393613B4B9B690A
:100EE00003F04003FB60FB68384B9B69374A43F0D3
:100EF00004039361354B9B6903F00403BB60BB683B
:100F0000324B9B69314A43F0100393612F4B9B692D
:100F100003F010037B607B682C4B9B692B4A43F0EA
:100F200008039361294B9B6903F008033B603B680E
:100F300000224FF48F51264800F0E8FF00220C21D8
:100F4000244800F0E3FF00222021234800F0DEFFC8
:100F50004FF4F0733B6101237B610023BB610223EB
:100F6000FB6107F110031946194800F03BFE0C2302
:100F70003B6101237B610023BB610323FB6107F11C
:100F800010031946134800F02DFE20233B61012376
:100F90007B610023BB610323FB6107F1100319464A
:100FA0000D4800F01FFE4FF480533B6101237B612D
:100FB0000023BB610323FB6107F1100319460448BA
:100FC00000F010FE00BF2037BD4680BD001002407B
:100FD00000180140000801400010014080B582B0B7
:100FE00000AF78604FF6FF730A220449044802F00C
:100FF000D5FB00BF0837BD4680BD00BFCC1A00201E
:10100000381A00202DE9F041ACB022AF786040F6EC
:10101000C413FB840021264801F06AFC08212448FF
:1010200001F066FC3C21234801F0BEFD3C21224832
:1010300001F0BAFD0C21214801F05AFC00233B626B
:101040001E4E07F1200C6D4606F10C040FCC0FC5A7
:101050000FCC0FC50FCC0FC594E8070085E807003B
:1010600096E80E006046FFF7F7F9114EB7F82680B4
:10107000124A10AB11464822184605F079FD6D461C
:1010800006F108040FCC0FC50FCC0FC50FCC0FC550
:1010900094E80F0085E80F0096E80C004146022016
:1010A000FFF7C6F84FF47A7003F072F9C8E700BF93
:1010B000A8190020E01A0020F0190020841A00204E
:1010C000F0B59DB00EAF7860412387F8373046F613
:1010D0004813FB6007F1100300221A605A609A60FF
:1010E000DA6007F137014FF6FF730122194802F069
:1010F00055FB194E6D4606F110040FCC0FC50FCCF1
:101100000FC50FCC0FC594E8030085E8030096E8EF
:101110000F00FFF7BFF90346104A136007F12003E1
:101120000F4A1049184605F039FD07F120031A4609
:101130000A210A20FFF770FB07F10C031A4614215D
:101140000A20FFF769FBFFF7F5F94FF47A7003F017
:101150001FF9C6E7381A0020F01900207C1A002079
:10116000CC1A00202474000880B400AF72B600BF0F
:10117000FEE7000080B584B000AF184B9B69174AAA
:1011800043F001039361154B9B6903F00103BB60BE
:10119000BB68124BDB69114A43F08053D3610F4B9C
:1011A000DB6903F080537B607B6800220F216FF0C6
:1011B000010000F09EFB0A4B5B68FB60FB6823F0BC
:1011C000E063FB60FB6843F08063FB60044AFB68FC
:1011D000536000BF1037BD4680BD00BF0010024005
:1011E0000000014080B58AB000AF786007F11803B5
:1011F00000221A605A609A60DA607B681B681F4A96
:1012000093420CD11E4B9B691D4A43F400639361CA
:101210001B4B9B6903F400637B617B6929E07B685E
:101220001B68184A934224D1154B9B69144A43F416
:1012300000539361124B9B6903F400533B613B697C
:101240000F4B9B690E4A43F0100393610C4B9B6953
:1012500003F01003FB60FB684FF4A073BB61022333
:10126000FB6102237B6207F118031946064800F070
:10127000B9FC00BF2837BD4680BD00BF002C01402F
:1012800000100240003401400010014080B58CB0D5
:1012900000AF786007F11C0300221A605A609A6060
:1012A000DA607B681B68B3F1804F4FD13E4BDB693E
:1012B0003D4A43F00103D3613B4BDB6903F001037B
:1012C000BB61BB69384B9B69374A43F004039361A8
:1012D000354B9B6903F004037B617B69324B9B694F
:1012E000314A43F0080393612F4B9B6903F00803D5
:1012F0003B613B694FF40043FB6100233B620023E9
:101300007B6207F11C031946284800F06BFC082398
:10131000FB6100233B6200237B6207F11C0319463B
:10132000234800F05FFC234B5B68FB62FB6A23F4FD
:101330004073FB62FB6A43F0E063FB62FB6A43F4C9
:101340008073FB621B4AFB6A536028E07B681B6862
:10135000194A934223D1144BDB69134A43F0040327
:10136000D361114BDB6903F00403FB60FB680E4B98
:101370009B690D4A43F0080393610B4B9B6903F093
:101380000803BB60BB68C023FB6100233B620023F2
:101390007B6207F11C031946054800F023FC00BFDF
:1013A0003037BD4680BD00BF00100240000801403C
:1013B000000C0140000001400008004080B588B0EA
:1013C00000AF786007F10C0300221A605A609A603F
:1013D000DA607B681B68194A93422AD1184B9B69D3
:1013E000174A43F040039361154B9B6903F0400398
:1013F000BB60BB684FF48043FB6002233B61022368
:10140000BB6107F10C0319460E4800F0EBFB0E4BD5
:101410005B68FB61FB6923F0C003FB61FB6943F080
:10142000E063FB61FB6943F0C003FB61064AFB69B3
:10143000536000BF2037BD4680BD00BF002C014077
:1014400000100240001801400000014080B58AB041
:1014500000AF786007F1140300221A605A609A60A6
:10146000DA607B681B68294A93424BD1284BDB69C1
:10147000274A43F48023D361254BDB6903F480239F
:101480003B613B69224B9B69214A43F01003936106
:101490001F4B9B6903F01003FB60FB684FF48063F4
:1014A0007B610223BB6103233B6207F114031946EE
:1014B000184800F097FB4FF400637B610023BB6189
:1014C0000023FB6107F114031946124800F08AFB60
:1014D000114B5B687B627B6A23F030037B627B6A23
:1014E00043F0E0637B627B6A43F010037B620A4A4D
:1014F0007B6A536000220521272000F0FAF927209B
:1015000000F013FA00BF2837BD4680BD00480040F8
:1015100000100240001001400000014080B400AF04
:10152000FEE780B400AFFEE780B400AFFEE780B412
:1015300000AFFEE780B400AFFEE780B400AF00BFAD
:10154000BD4680BC704780B500AF00F0BBF804F02A
:101550002BFB0346012B01D005F086F800BF80BDB0
:1015600080B500AF024802F0DBF900BF80BD00BFCC
:10157000381A002080B586B000AF7860144A154B49
:10158000D31A7B617B693B61134B1B68002B02D133
:10159000114B124A1A60104B1A687B6813443A695F
:1015A0009A4207D205F0BAFA03460C221A604FF0AD
:1015B000FF3309E0084B1B68FB60074B1A687B6828
:1015C0001344054A1360FB6818461837BD4680BDB2
:1015D000000001200004000090000020801F002077
:1015E00080B400AF00BFBD4680BC70470C480D49B9
:1015F0000D4A002302E0D458C4500433C4188C426E
:10160000F9D30A4A0A4C002301E013600432A242D3
:10161000FBD3FFF7E5FF05F087FAFFF7BBF970474B
:101620000000002074000020507F0008740000209B
:101630007C1F0020FEE7000080B500AF084B1B6850
:10164000074A43F010031360032000F047F90F200E
:1016500000F008F8FFF78EFD0023184680BD00BF9C
:101660000020024080B582B000AF7860124B1A684B
:10167000124B1B7819464FF47A73B3FBF1F3B2FBAC
:10168000F3F3184600F05FF90346002B01D0012365
:101690000EE07B680F2B0AD8002279684FF0FF30EC
:1016A00000F027F9064A7B681360002300E001235D
:1016B00018460837BD4680BD000000200800002005
:1016C0000400002080B400AF054B1B781A46054B80
:1016D0001B681344034A136000BFBD4680BC7047BB
:1016E00008000020281F002080B400AF024B1B68B8
:1016F0001846BD4680BC7047281F002080B584B0C6
:1017000000AF7860FFF7F0FFB8607B68FB60FB68B4
:10171000B3F1FF3F05D00A4B1B781A46FB68134410
:10172000FB6000BFFFF7E0FF0246BB68D31AFA6810
:101730009A42F7D800BF00BF1037BD4680BD00BF3A
:101740000800002080B485B000AF78607B6803F0AB
:101750000703FB600C4BDB68BB60BA684FF6FF0306
:101760001340BB60FB681A02BB68134343F0BF63BE
:1017700043F40033BB60044ABB68D36000BF143736
:10178000BD4680BC704700BF00ED00E080B400AFF4
:10179000044BDB681B0A03F007031846BD4680BCF8
:1017A000704700BF00ED00E080B483B000AF034697
:1017B000FB7197F90730002B0BDBFB7903F01F025D
:1017C000064997F907305B09012000FA02F241F857
:1017D000232000BF0C37BD4680BC704700E100E00D
:1017E00080B483B000AF03463960FB7197F90730CE
:1017F000002B0ADB3B68DAB20C4997F9073012017B
:10180000D2B20B4483F800230AE03B68DAB20849FD
:10181000FB7903F00F03043B1201D2B20B441A769A
:1018200000BF0C37BD4680BC704700BF00E100E040
:1018300000ED00E080B489B000AFF860B9607A6074
:10184000FB6803F00703FB61FB69C3F10703042B8B
:1018500028BF0423BB61FB690433062B02D9FB6953
:10186000033B00E000237B614FF0FF32BB6902FACB
:1018700003F3DA43BB681A407B699A404FF0FF31AB
:101880007B6901FA03F3D9437B680B401343184685
:101890002437BD4680BC704780B582B000AF786009
:1018A0007B68013BB3F1807F01D301230FE00A4A3B
:1018B0007B68013B53600F214FF0FF30FFF790FF33
:1018C000054B00229A60044B07221A600023184639
:1018D0000837BD4680BD00BF10E000E080B582B093
:1018E00000AF78607868FFF72DFF00BF0837BD466E
:1018F00080BD80B586B000AF0346B9607A60FB73E7
:1019000000237B61FFF742FF78617A68B9687869E4
:10191000FFF790FF024697F90F3011461846FFF780
:101920005FFF00BF1837BD4680BD80B582B000AFF5
:101930000346FB7197F907301846FFF735FF00BFE4
:101940000837BD4680BD80B582B000AF786078684A
:10195000FFF7A2FF034618460837BD4680BD80B496
:1019600085B000AF78600023FB737B6893F821306B
:10197000022B08D07B6804229A637B68002283F8DC
:101980002020012320E07B681B681A687B681B68A5
:1019900022F00E021A607B681B681A687B681B685D
:1019A00022F001021A607B681A6C7B68DB6B0121F4
:1019B00001FA02F25A607B68012283F821207B68D9
:1019C000002283F82020FB7B18461437BD4680BCDC
:1019D0007047000080B584B000AF78600023FB73CF
:1019E0007B6893F82130022B05D07B6804229A6330
:1019F0000123FB73D6E07B681B681A687B681B6851
:101A000022F00E021A607B681B681A687B681B68EC
:101A100022F001021A607B681B681A46644B9A42E6
:101A200058D97B681B68634A93424FD07B681B6818
:101A3000614A934248D07B681B68604A934240D019
:101A40007B681B685E4A934238D07B681B685D4A9E
:101A5000934230D07B681B685B4A934228D07B68F6
:101A60001B68534A934220D07B681B68574A9342B5
:101A700019D07B681B68564A934212D07B681B685A
:101A8000544A93420AD07B681B68534A934202D15E
:101A90004FF480531BE04FF4803318E04FF4807311
:101AA00015E0102313E0012311E04FF080730EE0E6
:101AB0004FF480130BE04FF4803308E04FF4805371
:101AC00005E04FF4807302E0102300E00123434A55
:101AD000536057E07B681B68364A93424FD07B685F
:101AE0001B68354A934248D07B681B68334A93424F
:101AF00040D07B681B68324A934238D07B681B68B1
:101B0000304A934230D07B681B682F4A934228D0DA
:101B10007B681B68264A934220D07B681B682B4A4F
:101B2000934219D07B681B68294A934212D07B6884
:101B30001B68284A93420AD07B681B68264A934256
:101B400002D14FF480531BE04FF4803318E04FF480
:101B5000807315E0102313E0012311E04FF0807330
:101B60000EE04FF480130BE04FF4803308E04FF4A5
:101B7000805305E04FF4807302E0102300E001235E
:101B8000174A53607B68012283F821207B6800227A
:101B900083F820207B685B6B002B03D07B685B6B3A
:101BA00078689847FB7B18461037BD4680BD00BF5C
:101BB00080000240080002401C0002403000024049
:101BC00044000240580002406C00024008040240F9
:101BD0001C0402403004024044040240000402405D
:101BE0000000024080B48BB000AF78603960002301
:101BF0007B6200233B6279E101227B6A02FA03F3F4
:101C0000FB613B681B68FA691340BB61BA69FB69F9
:101C10009A4240F068813B685B68A04A93425ED07C
:101C20009E4A934275D89E4A934258D09C4A93420A
:101C30006FD89C4A934252D09A4A934269D89A4AA2
:101C400093424CD0984A934263D8984A934246D0E4
:101C5000964A93425DD8122B2AD8122B59D801A24A
:101C600052F823F0DF1C0008B91C0008CB1C000848
:101C70000D1D0008131D0008131D0008131D00088A
:101C8000131D0008131D0008131D0008131D000874
:101C9000131D0008131D0008131D0008131D000864
:101CA000131D0008131D0008C11C0008D51C0008E6
:101CB0007F4A934213D02CE03B68DB683B6229E00B
:101CC0003B68DB6804333B6224E03B68DB68083335
:101CD0003B621FE03B68DB680C333B621AE03B6809
:101CE0009B68002B02D104233B6213E03B689B6896
:101CF000012B05D108233B627B68FA691A6109E070
:101D000008233B627B68FA695A6103E000233B6267
:101D100000E000BFBB69FF2B01D87B6801E07B6856
:101D200004337B61BB69FF2B02D87B6A9B0002E016
:101D30007B6A083B9B003B617B691A680F213B690A
:101D400001FA03F3DB431A40396A3B6901FA03F3F2
:101D50001A437B691A603B685B6803F08053002B71
:101D600000F0C180534B9B69524A43F001039361D9
:101D7000504B9B6903F00103BB60BB684E4A7B6A12
:101D80009B08023352F82330FB607B6A03F00303A5
:101D90009B000F2202FA03F3DB43FA681340FB6057
:101DA0007B68464A93421FD07B68454A934219D0CC
:101DB0007B68444A934213D07B68434A93420DD0D8
:101DC0007B68424A934207D07B68414A934201D1E3
:101DD00005230AE0062308E0042306E0032304E0C9
:101DE000022302E0012300E000237A6A02F00302EA
:101DF00092009340FA681343FB602F497B6A9B086B
:101E00000233FA6841F823203B685B6803F48033AF
:101E1000002B06D02F4B1A682E49BB6913430B6069
:101E200006E02C4B1A68BB69DB432A4913400B6060
:101E30003B685B6803F40033002B06D0254B5A68DF
:101E40002449BB6913434B6006E0224B5A68BB69C7
:101E5000DB43204913404B603B685B6803F480130D
:101E6000002B06D01B4B9A681A49BB6913438B6041
:101E700006E0184B9A68BB69DB43164913408B6038
:101E80003B685B6803F40013002B25D0114BDA6824
:101E90001049BB691343CB6025E000BF000032103E
:101EA000000031100000221000002110000012106C
:101EB0000000111000100240000001400008014025
:101EC000000C0140001001400014014000180140C6
:101ED000001C0140000401400B4BDA68BB69DB4386
:101EE00009491340CB607B6A01337B623B681A6807
:101EF0007B6A22FA03F3002B7FF47EAE00BF00BFA3
:101F00002C37BD4680BC70470004014080B483B0CC
:101F100000AF78600B467B8013467B707B78002B8C
:101F200003D07A887B681A6103E07B881A047B6897
:101F30001A6100BF0C37BD4680BC704780B400AF4B
:101F4000034B01221A6000BFBD4680BC704700BF32
:101F500020000E4280B400AF034B00221A6000BF85
:101F6000BD4680BC704700BF20000E4280B586B0E1
:101F700000AF78607B68002B01D101236CE27B68A5
:101F80001B6803F00103002B00F08780924B5B6815
:101F900003F00C03042B0CD08F4B5B6803F00C0395
:101FA000082B12D18C4B5B6803F48033B3F5803F70
:101FB0000BD1894B1B6803F40033002B6CD07B687A
:101FC0005B68002B68D1012346E27B685B68B3F550
:101FD000803F06D1804B1B687F4A43F480331360F7
:101FE0002EE07B685B68002B0CD17B4B1B687A4A28
:101FF00023F480331360784B1B68774A23F48023E3
:1020000013601DE07B685B68B3F5A02F0CD1724BA9
:102010001B68714A43F4802313606F4B1B686E4A40
:1020200043F4803313600BE06B4B1B686A4A23F464
:1020300080331360684B1B68674A23F48023136066
:102040007B685B68002B13D0FFF74EFB386108E01C
:10205000FFF74AFB02463B69D31A642B01D90323DD
:10206000FAE15D4B1B6803F40033002BF0D014E061
:10207000FFF73AFB386108E0FFF736FB02463B69A1
:10208000D31A642B01D90323E6E1534B1B6803F4F5
:102090000033002BF0D100E000BF7B681B6803F029
:1020A0000203002B63D04C4B5B6803F00C03002B46
:1020B0000BD0494B5B6803F00C03082B1CD1464B3B
:1020C0005B6803F48033002B16D1434B1B6803F08D
:1020D0000203002B05D07B681B69012B01D0012373
:1020E000BAE13D4B1B6823F0F8027B685B69DB00BB
:1020F000394913430B603AE07B681B69002B20D001
:10210000364B01221A60FFF7EFFA386108E0FFF75B
:10211000EBFA02463B69D31A022B01D903239BE158
:102120002D4B1B6803F00203002BF0D02A4B1B68D9
:1021300023F0F8027B685B69DB00274913430B60DF
:1021400015E0264B00221A60FFF7CEFA386108E04E
:10215000FFF7CAFA02463B69D31A022B01D90323BF
:102160007AE11D4B1B6803F00203002BF0D17B6862
:102170001B6803F00803002B3AD07B689B69002B97
:1021800019D0174B01221A60FFF7AEFA386108E048
:10219000FFF7AAFA02463B69D31A022B01D903239F
:1021A0005AE10D4B5B6A03F00203002BF0D00120D3
:1021B00000F0D8FA1CE00A4B00221A60FFF794FAEC
:1021C00038610FE0FFF790FA02463B69D31A022B01
:1021D00008D9032340E100BF001002400000424242
:1021E000800442429E4B5B6A03F00203002BE9D15C
:1021F0007B681B6803F00403002B00F0A68000231B
:10220000FB75974BDB6903F08053002B0DD1944B8A
:10221000DB69934A43F08053D361914BDB6903F050
:102220008053BB60BB680123FB758E4B1B6803F4B6
:102230008073002B18D18B4B1B688A4A43F4807340
:102240001360FFF751FA386108E0FFF74DFA0246D4
:102250003B69D31A642B01D90323FDE0814B1B6832
:1022600003F48073002BF0D07B68DB68012B06D170
:102270007B4B1B6A7A4A43F0010313622DE07B68B3
:10228000DB68002B0CD1764B1B6A754A23F00103E7
:102290001362734B1B6A724A23F0040313621CE03F
:1022A0007B68DB68052B0CD16D4B1B6A6C4A43F0D5
:1022B000040313626A4B1B6A694A43F00103136209
:1022C0000BE0674B1B6A664A23F001031362644B01
:1022D0001B6A634A23F0040313627B68DB68002BEC
:1022E00015D0FFF701FA38610AE0FFF7FDF9024661
:1022F0003B69D31A41F28832934201D90323ABE000
:10230000574B1B6A03F00203002BEED014E0FFF7DB
:10231000EBF938610AE0FFF7E7F902463B69D31AA7
:1023200041F28832934201D9032395E04C4B1B6A5A
:1023300003F00203002BEED1FB7D012B05D1484BAE
:10234000DB69474A23F08053D3617B68DB69002B4C
:1023500000F08180424B5B6803F00C03082B61D0D6
:102360007B68DB69022B46D13F4B00221A60FFF7E6
:10237000BBF9386108E0FFF7B7F902463B69D31AA9
:10238000022B01D9032367E0354B1B6803F0007370
:10239000002BF0D17B681B6AB3F5803F08D1304B2E
:1023A0005B6823F400327B689B682D4913434B60C4
:1023B0002B4B5B6823F474127B68196A7B685B6A39
:1023C0000B43274913434B60274B01221A60FFF749
:1023D0008BF9386108E0FFF787F902463B69D31AA9
:1023E000022B01D9032337E01D4B1B6803F0007358
:1023F000002BF0D02FE01C4B00221A60FFF774F97D
:10240000386108E0FFF770F902463B69D31A022BE6
:1024100001D9032320E0124B1B6803F00073002B4B
:10242000F0D118E07B68DB69012B01D1012313E0B7
:102430000B4B5B68FB60FB6803F480327B681B6AB4
:102440009A4206D1FB6803F470127B685B6A9A4279
:1024500001D0012300E0002318461837BD4680BD97
:1024600000100240007000406000424280B584B01D
:1024700000AF786039607B68002B01D10123D0E088
:102480006A4B1B6803F007033A689A4210D9674BFE
:102490001B6823F0070265493B6813430B60634BDD
:1024A0001B6803F007033A689A4201D00123B8E0A1
:1024B0007B681B6803F00203002B20D07B681B683D
:1024C00003F00403002B05D0594B5B68584A43F4D2
:1024D000E06353607B681B6803F00803002B05D0A2
:1024E000534B5B68524A43F460535360504B5B68F4
:1024F00023F0F0027B689B684D4913434B607B6877
:102500001B6803F00103002B40D07B685B68012B44
:1025100007D1474B1B6803F40033002B15D101236F
:102520007FE07B685B68022B07D1414B1B6803F09F
:102530000073002B09D1012373E03D4B1B6803F0AE
:102540000203002B01D101236BE0394B5B6823F0C0
:1025500003027B685B68364913434B60FFF7C4F89E
:10256000F8600AE0FFF7C0F80246FB68D31A41F2B0
:102570008832934201D9032353E02D4B5B6803F06B
:102580000C027B685B689B009A42EBD1274B1B686F
:1025900003F007033A689A4210D2244B1B6823F0D9
:1025A000070222493B6813430B60204B1B6803F072
:1025B00007033A689A4201D0012332E07B681B6826
:1025C00003F00403002B08D0194B5B6823F4E0628E
:1025D0007B68DB68164913434B607B681B6803F01C
:1025E0000803002B09D0124B5B6823F460527B6810
:1025F0001B69DB000E4913434B6000F021F80246D3
:102600000B4B5B681B0903F00F030A49CB5C22FAF2
:1026100003F3094A1360094B1B681846FFF722F8B9
:10262000002318461037BD4680BD00BF0020024081
:1026300000100240FC7E0008000000200400002082
:1026400090B48AB000AF2A4B3C1D0FCB84E80F003A
:1026500040F201233B800023FB610023BB61002388
:102660007B6200237B6100233B62224B5B68FB6142
:10267000FB6903F00C03042B02D0082B03D02DE0E0
:102680001D4B3B622DE0FB699B0C03F00F0307F130
:102690002802134413F8243C7B61FB6903F4803364
:1026A000002B13D0134B5B685B0C03F0010307F1A5
:1026B0002802134413F8283CBB617B690E4A02FBD5
:1026C00003F2BB69B2FBF3F37B6204E07B690B4A64
:1026D00002FB03F37B627B6A3B6202E0064B3B62D8
:1026E00000BF3B6A18462837BD4690BC704700BF04
:1026F000287400080010024000127A0000093D0012
:1027000080B400AF024B1B681846BD4680BC7047C2
:102710000000002080B500AFFFF7F2FF0246054B36
:102720005B681B0A03F007030349CB5C22FA03F33F
:10273000184680BD001002400C7F000880B500AF35
:10274000FFF7DEFF0246054B5B68DB0A03F0070379
:102750000349CB5C22FA03F3184680BD0010024007
:102760000C7F000880B485B000AF78600A4B1B680E
:102770000A4AA2FB03235B0A7A6802FB03F3FB60AD
:1027800000BFFB685A1EFA60002BF9D100BF00BFE2
:102790001437BD4680BC704700000020D34D621046
:1027A00080B582B000AF78607B68002B01D1012337
:1027B00041E07B6893F83D30DBB2002B06D17B68AB
:1027C000002283F83C207868FEF70CFD7B6802222B
:1027D00083F83D207B681A687B68043319461046ED
:1027E00000F0F2FB7B68012283F846207B6801221F
:1027F00083F83E207B68012283F83F207B6801221A
:1028000083F840207B68012283F841207B68012205
:1028100083F842207B68012283F843207B680122F1
:1028200083F844207B68012283F845207B680122DD
:1028300083F83D20002318460837BD4680BD80B58B
:1028400082B000AF78607B68002B01D1012341E0AA
:102850007B6893F83D30DBB2002B06D17B68002209
:1028600083F83C20786800F039F87B68022283F80E
:102870003D207B681A687B6804331946104600F0D7
:10288000A3FB7B68012283F846207B68012283F842
:102890003E207B68012283F83F207B68012283F879
:1028A00040207B68012283F841207B68012283F865
:1028B00042207B68012283F843207B68012283F851
:1028C00044207B68012283F845207B68012283F83D
:1028D0003D20002318460837BD4680BD80B483B034
:1028E00000AF786000BF0C37BD4680BC7047000069
:1028F00080B584B000AF786039603B68002B09D1A7
:102900007B6893F83E30DBB2012B14BF0123002318
:10291000DBB222E03B68042B09D17B6893F83F309F
:10292000DBB2012B14BF01230023DBB215E03B68AF
:10293000082B09D17B6893F84030DBB2012B14BF20
:1029400001230023DBB208E07B6893F84130DBB25F
:10295000012B14BF01230023DBB2002B01D0012384
:1029600072E03B68002B04D17B68022283F83E2092
:1029700013E03B68042B04D17B68022283F83F20DC
:102980000BE03B68082B04D17B68022283F84020CF
:1029900003E07B68022283F841207B681B680122E8
:1029A0003968184600F0CCFD7B681B68284A9342C2
:1029B00004D07B681B68274A934201D1012300E0C1
:1029C0000023002B07D07B681B685A6C7B681B6850
:1029D00042F400425A647B681B681D4A934218D037
:1029E0007B681B681B4A934213D07B681B68B3F15A
:1029F000804F0ED07B681B68174A934209D07B68D2
:102A00001B68164A934204D07B681B68144A9342A1
:102A100011D17B681B689B6803F00703FB60FB68B0
:102A2000062B10D07B681B681A687B681B6842F015
:102A300001021A6007E07B681B681A687B681B68E4
:102A400042F001021A60002318461037BD4680BDCF
:102A5000002C014000340140000400400008004008
:102A6000000C004080B586B000AF786039607B68AC
:102A7000002B01D1012393E07B6893F83D30DBB25A
:102A8000002B06D17B68002283F83C207868FEF793
:102A9000FDFB7B68022283F83D207B681B689B68F6
:102AA0007A68126823F4804323F0070393607B68FD
:102AB0001A687B6804331946104600F085FA7B6873
:102AC0001B689B687B617B681B689B693B617B68BB
:102AD0001B681B6AFB603B681B687A6913437B6158
:102AE0003B6923F4407323F003033B613B689A681E
:102AF0003B689B691B0213433A6913433B613B6983
:102B000023F4406323F00C033B613B6923F47043DF
:102B100023F0F0033B613B68DA683B68DB691B022A
:102B200013433A6913433B613B681B691A013B68D5
:102B30001B6A1B0313433A6913433B61FB6823F091
:102B40002203FB603B685A683B685B691B011343C7
:102B5000FA681343FB607B681B687A699A607B683C
:102B60001B683A699A617B681B68FA681A627B681D
:102B7000012283F846207B68012283F83E207B688F
:102B8000012283F83F207B68012283F842207B6882
:102B9000012283F843207B68012283F83D20002333
:102BA00018461837BD4680BD80B584B000AF786048
:102BB00039607B6893F83E30FB737B6893F83F3055
:102BC000BB737B6893F842307B737B6893F8433028
:102BD0003B733B68002B10D1FB7B012B02D17B7B2D
:102BE000012B01D0012369E07B68022283F83E209B
:102BF0007B68022283F8422031E03B68042B10D12D
:102C0000BB7B012B02D13B7B012B01D0012355E083
:102C10007B68022283F83F207B68022283F84320EE
:102C20001DE0FB7B012B08D1BB7B012B05D17B7BFE
:102C3000012B02D13B7B012B01D001233EE07B68BD
:102C4000022283F83E207B68022283F83F207B68C3
:102C5000022283F842207B68022283F843203B68EB
:102C6000002B03D03B68042B08D00FE07B681B6867
:102C700001220021184600F063FC16E07B681B6807
:102C800001220421184600F05BFC0EE07B681B6803
:102C900001220021184600F053FC7B681B680122CA
:102CA0000421184600F04CFC00BF7B681B681A68C2
:102CB0007B681B6842F001021A6000231846103737
:102CC000BD4680BD80B584B000AFF860B9607A6061
:102CD000FB6893F83C30012B01D10223ACE0FB6888
:102CE000012283F83C207B680C2B00F29F8001A21C
:102CF00052F823F0292D00082D2E00082D2E000853
:102D00002D2E0008692D00082D2E00082D2E0008FC
:102D10002D2E0008AB2D00082D2E00082D2E0008AA
:102D20002D2E0008EB2D0008FB681B68B9681846BB
:102D300000F0C4F9FB681B689A69FB681B6842F0E5
:102D400008029A61FB681B689A69FB681B6822F09D
:102D500004029A61FB681B689969BB681A69FB6881
:102D60001B680A439A6162E0FB681B68B9681846F1
:102D700000F014FAFB681B689A69FB681B6842F450
:102D800000629A61FB681B689A69FB681B6822F401
:102D900080629A61FB681B689969BB681B691A02AB
:102DA000FB681B680A439A6141E0FB681B68B968CD
:102DB000184600F067FAFB681B68DA69FB681B6855
:102DC00042F00802DA61FB681B68DA69FB681B687D
:102DD00022F00402DA61FB681B68D969BB681A69D2
:102DE000FB681B680A43DA6121E0FB681B68B9686D
:102DF000184600F0BBFAFB681B68DA69FB681B68C1
:102E000042F40062DA61FB681B68DA69FB681B68E0
:102E100022F48062DA61FB681B68D969BB681B69B0
:102E20001A02FB681B680A43DA6100E000BFFB6816
:102E3000002283F83C20002318461037BD4680BD91
:102E400080B584B000AF786039607B6893F83C301F
:102E5000012B01D10223B3E07B68012283F83C20DF
:102E60007B68022283F83D207B681B689B68FB60BF
:102E7000FB6823F07703FB60FB6823F47F43FB6070
:102E80007B681B68FA689A603B681B68B3F5005F53
:102E90003ED0B3F5005F00F28780B3F5805F00F0AD
:102EA0008580B3F5805F7FD8702B1AD0702B7BD8CC
:102EB000602B50D0602B77D8502B3CD0502B73D840
:102EC000402B58D0402B6FD8302B64D0302B6BD890
:102ED000202B60D0202B67D8002B5CD0102B5AD031
:102EE00062E07B6818683B6899683B685A683B6891
:102EF000DB6800F006FB7B681B689B68FB60FB6877
:102F000043F07703FB607B681B68FA689A604EE0C9
:102F10007B6818683B6899683B685A683B68DB685F
:102F200000F0EFFA7B681B689A687B681B6842F4C4
:102F300080429A603BE07B6818683B6859683B6850
:102F4000DB681A4600F066FA7B681B685021184659
:102F500000F0BDFA2BE07B6818683B6859683B6855
:102F6000DB681A4600F084FA7B681B68602118460B
:102F700000F0ADFA1BE07B6818683B6859683B6855
:102F8000DB681A4600F046FA7B681B684021184649
:102F900000F09DFA0BE07B681A683B681B681946D5
:102FA000104600F094FA02E000BF00E000BF7B682A
:102FB000012283F83D207B68002283F83C20002317
:102FC00018461037BD4680BD80B485B000AF78602C
:102FD00039607B681B68FB607B68334A934213D07F
:102FE0007B68324A93420FD07B68B3F1804F0BD09D
:102FF0007B682F4A934207D07B682E4A934203D0C6
:103000007B682D4A934208D1FB6823F07003FB6074
:103010003B685B68FA681343FB607B68224A934213
:1030200013D07B68214A93420FD07B68B3F1804F65
:103030000BD07B681E4A934207D07B681D4A93429F
:1030400003D07B681C4A934208D1FB6823F4407389
:10305000FB603B68DB68FA681343FB60FB6823F0A6
:1030600080023B685B691343FB607B68FA681A6007
:103070003B689A687B68DA623B681A687B689A6288
:103080007B68094A934203D07B68084A934203D184
:103090003B681A697B681A637B6801225A6100BF2A
:1030A0001437BD4680BC7047002C014000340140FD
:1030B0000004004000080040000C004080B487B0CD
:1030C00000AF786039607B681B6A23F001027B687F
:1030D0001A627B681B6A7B617B685B683B617B680B
:1030E0009B69FB60FB6823F07003FB60FB6823F0C7
:1030F0000303FB603B681B68FA681343FB607B6952
:1031000023F002037B613B689B687A6913437B6110
:103110007B68204A934203D07B681F4A93420CD1BC
:103120007B6923F008037B613B68DB687A691343A2
:103130007B617B6923F004037B617B68154A9342C2
:1031400003D07B68144A934211D13B6923F4807306
:103150003B613B6923F400733B613B685B693A69FF
:1031600013433B613B689B693A6913433B617B684E
:103170003A695A607B68FA689A613B685A687B686A
:103180005A637B687A691A6200BF1C37BD4680BCEF
:10319000704700BF002C01400034014080B487B06C
:1031A00000AF786039607B681B6A23F010027B688F
:1031B0001A627B681B6A7B617B685B683B617B682A
:1031C0009B69FB60FB6823F4E043FB60FB6823F42E
:1031D0004073FB603B681B681B02FA681343FB608B
:1031E0007B6923F020037B613B689B681B017A6944
:1031F00013437B617B68214A934203D07B68204A5A
:1032000093420DD17B6923F080037B613B68DB68CF
:103210001B017A6913437B617B6923F040037B6167
:103220007B68164A934203D07B68154A934213D1B8
:103230003B6923F480633B613B6923F400633B619A
:103240003B685B699B003A6913433B613B689B6940
:103250009B003A6913433B617B683A695A607B681B
:10326000FA689A613B685A687B689A637B687A69F6
:103270001A6200BF1C37BD4680BC7047002C01405D
:103280000034014080B487B000AF786039607B685B
:103290001B6A23F480727B681A627B681B6A7B61FD
:1032A0007B685B683B617B68DB69FB60FB6823F0E4
:1032B0007003FB60FB6823F00303FB603B681B6843
:1032C000FA681343FB607B6923F400737B613B68FE
:1032D0009B681B027A6913437B617B68214A934296
:1032E00003D07B68204A93420DD17B6923F40063AD
:1032F0007B613B68DB681B027A6913437B617B69F6
:1033000023F480637B617B68164A934203D07B6819
:10331000154A934213D13B6923F480533B613B69C7
:1033200023F400533B613B685B691B013A6913431B
:103330003B613B689B691B013A6913433B617B68B6
:103340003A695A607B68FA68DA613B685A687B6858
:10335000DA637B687A691A6200BF1C37BD4680BC9D
:10336000704700BF002C01400034014080B487B09A
:1033700000AF786039607B681B6A23F480527B68F9
:103380001A627B681B6A3B617B685B687B617B6858
:10339000DB69FB60FB6823F4E043FB60FB6823F41C
:1033A0004073FB603B681B681B02FA681343FB60B9
:1033B0003B6923F400533B613B689B681B033A69FC
:1033C00013433B617B68114A934203D07B68104AE8
:1033D000934209D17B6923F480437B613B685B693D
:1033E0009B017A6913437B617B687A695A607B68C9
:1033F000FA68DA613B685A687B681A647B683A69E4
:103400001A6200BF1C37BD4680BC7047002C0140CB
:103410000034014080B487B000AFF860B9607A60D2
:10342000FB681B6A7B61FB681B6A23F00102FB6877
:103430001A62FB689B693B613B6923F0F0033B61C7
:103440007B681B013A6913433B617B6923F00A03E4
:103450007B617A69BB6813437B61FB683A699A6157
:10346000FB687A691A6200BF1C37BD4680BC704792
:1034700080B487B000AFF860B9607A60FB681B6AFF
:1034800023F01002FB681A62FB689B697B61FB6892
:103490001B6A3B617B6923F470437B617B681B0380
:1034A0007A6913437B613B6923F0A0033B61BB68EE
:1034B0001B013A6913433B61FB687A699A61FB68B7
:1034C0003A691A6200BF1C37BD4680BC704780B4A1
:1034D00085B000AF786039607B689B68FB60FB68F3
:1034E00023F07003FB603A68FB68134343F0070363
:1034F000FB607B68FA689A6000BF1437BD4680BCE9
:10350000704780B487B000AFF860B9607A603B6004
:10351000FB689B687B617B6923F47F437B613B682D
:103520001A027B681A43BB6813437A6913437B61B1
:10353000FB687A699A6000BF1C37BD4680BC704743
:1035400080B487B000AFF860B9607A60BB6803F000
:103550001F03012202FA03F37B61FB681A6A7B698D
:10356000DB431A40FB681A62FB681A6ABB6803F007
:103570001F03796801FA03F31A43FB681A6200BF5C
:103580001C37BD4680BC704780B485B000AF786002
:1035900039607B6893F83C30012B01D1022350E065
:1035A0007B68012283F83C207B68022283F83D205F
:1035B0007B681B685B68FB607B681B689B68BB6003
:1035C000FB6823F07003FB603B681B68FA681343D9
:1035D000FB607B681B68FA685A607B681B681B4A43
:1035E000934218D07B681B68194A934213D07B68BA
:1035F0001B68B3F1804F0ED07B681B68154A93425D
:1036000009D07B681B68144A934204D07B681B680E
:10361000124A93420CD1BB6823F08003BB603B6825
:103620005B68BA681343BB607B681B68BA689A60C2
:103630007B68012283F83D207B68002283F83C20D0
:10364000002318461437BD4680BC7047002C01404B
:10365000003401400004004000080040000C00401D
:1036600080B485B000AF786039600023FB607B6870
:1036700093F83C30012B01D102233DE07B6801220D
:1036800083F83C20FB6823F0FF023B68DB681343B0
:10369000FB60FB6823F440723B689B681343FB604C
:1036A000FB6823F480623B685B681343FB60FB6844
:1036B00023F400623B681B681343FB60FB6823F440
:1036C00080523B681B691343FB60FB6823F4005284
:1036D0003B685B691343FB60FB6823F480423B68F3
:1036E000DB691343FB607B681B68FA685A647B687C
:1036F000002283F83C20002318461437BD4680BCC6
:10370000704780B582B000AF78607B68002B01D134
:1037100001233FE07B6893F83D30DBB2002B06D1FC
:103720007B68002283F83C207868FDF78FFE7B6879
:10373000242283F83D207B681B68DA687B681B685D
:1037400022F40052DA60786800F084FC7B681B6821
:103750001A697B681B6822F490421A617B681B68B7
:103760005A697B681B6822F02A025A617B681B68D1
:10377000DA687B681B6842F40052DA607B680022DA
:103780001A647B68202283F83D207B68202283F81E
:103790003E20002318460837BD4680BD80B58AB05C
:1037A00002AFF860B9603B601346FB8000237B6189
:1037B000FB6893F83D30DBB2202B7CD1BB68002B3B
:1037C00002D0FB88002B01D1012375E0FB6893F840
:1037D0003C30012B01D102236EE0FB68012283F80B
:1037E0003C20FB6800221A64FB68212283F83D20FC
:1037F000FDF77AFF7861FB68FA889A84FB68FA889B
:10380000DA84FB689B68B3F5805F08D1FB681B69AD
:10381000002B04D10023FB61BB68BB6103E0BB68E4
:10382000FB610023BB61FB68002283F83C202AE097
:103830003B6800937B6900228021F86800F037FA2A
:103840000346002B01D0032336E0FB69002B0BD18C
:10385000BB691B881A46FB681B68C2F308025A60E2
:10386000BB690233BB6107E0FB691A78FB681B6820
:103870005A60FB690133FB61FB68DB8C9BB2013B47
:103880009AB2FB68DA84FB68DB8C9BB2002BCFD149
:103890003B6800937B6900224021F86800F007FA3A
:1038A0000346002B01D0032306E0FB68202283F8A7
:1038B0003D20002300E0022318462037BD4680BD8E
:1038C00080B584B000AFF860B9601346FB80FB6838
:1038D00093F83E30DBB2202B1DD1BB68002B02D009
:1038E000FB88002B01D1012316E0FB6893F83C30E4
:1038F000012B01D102230FE0FB68012283F83C2059
:10390000FB6800221A63FB881A46B968F86800F061
:1039100018FA034600E0022318461037BD4680BD62
:1039200080B58AB000AF78607B681B681B687B62DB
:103930007B681B68DB683B627B681B685B69FB61BB
:103940000023BB6100237B617B6A03F00F03BB6133
:10395000BB69002B0DD17B6A03F02003002B08D03C
:103960003B6A03F02003002B03D0786800F0C9FA0B
:103970007BE1BB69002B00F0B180FB6903F0010320
:10398000002B05D13B6A03F49073002B00F0A68056
:103990007B6A03F00103002B0AD03B6A03F48073B7
:1039A000002B05D07B681B6C43F001027B681A6416
:1039B0007B6A03F00403002B0AD0FB6903F00103C8
:1039C000002B05D07B681B6C43F002027B681A64F5
:1039D0007B6A03F00203002B0AD0FB6903F00103AA
:1039E000002B05D07B681B6C43F004027B681A64D3
:1039F0007B6A03F00803002B0FD03B6A03F020031F
:103A0000002B04D1FB6903F00103002B05D07B6878
:103A10001B6C43F008027B681A647B681B6C002BEC
:103A200000F01E817B6A03F02003002B07D03B6A65
:103A300003F02003002B02D0786800F062FA7B6864
:103A40001B685B6903F04003002B14BF01230023B4
:103A5000DBB27B617B681B6C03F00803002B02D197
:103A60007B69002B31D0786800F0A4F97B681B6873
:103A70005B6903F04003002B23D07B681B685A6905
:103A80007B681B6822F040025A617B689B6B002BAD
:103A900013D07B689B6B764A5A637B689B6B184696
:103AA000FDF798FF0346002B16D07B689B6B5B6B82
:103AB0007A68926B104698470EE0786800F0E3F859
:103AC0000AE0786800F0DFF806E0786800F0DBF8DC
:103AD0007B6800221A64C3E000BFC1E07B681B6BF7
:103AE000012B40F0A1807B6A03F01003002B00F053
:103AF0009B803B6A03F01003002B00F095800023AD
:103B0000FB607B681B681B68FB607B681B685B68ED
:103B1000FB60FB687B681B685B6903F04003002B5C
:103B20004ED07B689B6B1B685B683B823B8A002B9B
:103B300000F098807B689B8D3A8A9A4280F0928050
:103B40007B683A8ADA857B689B6B9B69202B2BD03C
:103B50007B681B68DA687B681B6822F48072DA6015
:103B60007B681B685A697B681B6822F001025A61F6
:103B70007B681B685A697B681B6822F040025A61A7
:103B80007B68202283F83E207B6800221A637B68D2
:103B90001B68DA687B681B6822F01002DA607B68B9
:103BA0009B6B1846FDF7DBFE7B689A8D7B68DB8D8F
:103BB0009BB2D31A9BB21946786800F06DF851E0B9
:103BC0007B689A8D7B68DB8D9BB2D31A7B827B6886
:103BD000DB8D9BB2002B47D07B8A002B44D07B68C7
:103BE0001B68DA687B681B6822F49072DA607B6875
:103BF0001B685A697B681B6822F001025A617B6866
:103C0000202283F83E207B6800221A637B681B68B1
:103C1000DA687B681B6822F01002DA607B8A19463A
:103C2000786800F039F81FE07B6A03F08003002B0E
:103C300008D03B6A03F08003002B03D0786800F0C3
:103C4000F9F812E07B6A03F04003002B0DD03B6AC9
:103C500003F04003002B08D0786800F03AF904E044
:103C600000BF02E000BF00E000BF2837BD4680BDB6
:103C70000D3E000880B483B000AF786000BF0C3701
:103C8000BD4680BC704780B483B000AF786000BF91
:103C90000C37BD4680BC704780B483B000AF7860FD
:103CA0000B467B8000BF0C37BD4680BC704780B59B
:103CB00084B000AFF860B9603B601346FB712CE044
:103CC000BB69B3F1FF3F28D0BB69002B07D0FDF7DC
:103CD0000BFD02463B68D31ABA699A421DD2FB68B3
:103CE0001B68DA68FB681B6822F4D072DA60FB6834
:103CF0001B685A69FB681B6822F001025A61FB6865
:103D0000202283F83D20FB68202283F83E20FB68B8
:103D1000002283F83C2003230FE0FB681B681A682D
:103D2000BB681340BA689A420CBF01230023DBB280
:103D30001A46FB799A42C3D0002318461037BD4675
:103D400080BD80B485B000AFF860B9601346FB80D9
:103D5000FB68BA689A62FB68FA889A85FB68FA88F9
:103D6000DA85FB6800221A64FB68222283F83E2071
:103D7000FB68002283F83C20FB681B68DA68FB685C
:103D80001B6842F48072DA60FB681B685A69FB6842
:103D90001B6842F001025A61FB681B68DA68FB6825
:103DA0001B6842F02002DA60002318461437BD4633
:103DB00080BC704780B483B000AF78607B681B68BC
:103DC000DA687B681B6822F49072DA607B681B6893
:103DD0005A697B681B6822F001025A617B681B6B81
:103DE000012B07D17B681B68DA687B681B6822F0AF
:103DF0001002DA607B68202283F83E207B68002274
:103E00001A6300BF0C37BD4680BC704780B584B0D4
:103E100000AF78607B685B6AFB60FB680022DA8534
:103E2000FB680022DA84F868FFF72DFF00BF103727
:103E3000BD4680BD80B485B000AF78607B6893F8E4
:103E40003D30DBB2212B3ED17B689B68B3F5805FB0
:103E500014D17B681B69002B10D17B681B6AFB6047
:103E6000FB681B881A467B681B68C2F308025A600D
:103E70007B681B6A9A1C7B681A6208E07B681B6A75
:103E8000591C7A6811621A787B681B685A607B68D3
:103E9000DB8C9BB2013B9BB27A681946D184002B24
:103EA0000FD17B681B68DA687B681B6822F0800290
:103EB000DA607B681B68DA687B681B6842F0400246
:103EC000DA60002300E0022318461437BD4680BCA8
:103ED000704780B582B000AF78607B681B68DA6895
:103EE0007B681B6822F04002DA607B68202283F83E
:103EF0003D207868FFF7BEFE002318460837BD4610
:103F000080BD80B586B000AF78607B6893F83E30A6
:103F1000DBB2222B40F099807B689B68B3F5805F11
:103F200017D17B681B69002B13D100237B617B6851
:103F30009B6A3B617B681B685B689BB2C3F30803A9
:103F40009AB23B691A807B689B6A9A1C7B689A626A
:103F500026E07B689B6A7B6100233B617B689B68F2
:103F6000B3F5805F07D07B689B68002B0AD17B6824
:103F70001B69002B06D17B681B685B68DAB27B6922
:103F80001A7008E07B681B685B68DBB203F07F0394
:103F9000DAB27B691A707B689B6A5A1C7B689A62EA
:103FA0007B68DB8D9BB2013B9BB27A681946D18559
:103FB000002B48D17B681B68DA687B681B6822F09D
:103FC0002002DA607B681B68DA687B681B6822F471
:103FD0008072DA607B681B685A697B681B6822F014
:103FE00001025A617B68202283F83E207B681B6BAC
:103FF000012B23D17B6800221A637B681B68DA6877
:104000007B681B6822F01002DA607B681B681B6803
:1040100003F01003102B0AD10023FB607B681B68A0
:104020001B68FB607B681B685B68FB60FB687B68E8
:104030009B8D19467868FFF72FFE02E07868FCF741
:10404000CDFF002302E0002300E0022318461837CA
:10405000BD4680BD80B584B000AF78607B681B68CA
:104060001B6923F440517B68DA687B681B680A434C
:104070001A617B689A687B681B691A437B685B6975
:104080001343BB607B681B68DB6823F4B05323F0E9
:104090000C037A681268B9680B43D3607B681B68AD
:1040A0005B6923F440717B689A697B681B680A43EB
:1040B0005A617B681B682C4A934203D1FEF73EFB92
:1040C000F86002E0FEF726FBF860FA6813469B00F2
:1040D00013449A001A447B685B689B00B2FBF3F3BD
:1040E000224AA2FB03235B091901FA6813469B00CD
:1040F00013449A001A447B685B689B00B2FBF3F29E
:104100001A4BA3FB02035B09642000FB03F3D31AE1
:104110001B013233154AA2FB03235B0903F0F003B2
:104120001944FA6813469B0013449A001A447B68AA
:104130005B689B00B2FBF3F20C4BA3FB02035B0931
:10414000642000FB03F3D31A1B013233074AA2FB9E
:1041500003235B0903F00F027B681B680A449A6023
:1041600000BF1037BD4680BD003801401F85EB51B0
:1041700080B485B000AFEFF30583BB60BB68002B54
:104180000FD1EFF310837B607B68002B09D1104BBC
:104190001B68022B09D1EFF311833B603B68002BB6
:1041A00003D06FF00503FB600CE0094B1B68002B8C
:1041B00005D1074B01221A600023FB6002E04FF09B
:1041C000FF33FB60FB6818461437BD4680BC704760
:1041D0009400002080B584B000AFEFF30583BB608E
:1041E000BB68002B0FD1EFF310837B607B68002B43
:1041F00009D1114B1B68022B09D1EFF311833B60EE
:104200003B68002B03D06FF00503FB600EE00A4B08
:104210001B68012B07D1084B02221A6001F078F8C5
:104220000023FB6002E04FF0FF33FB60FB681846A1
:104230001037BD4680BD00BF9400002080B592B00D
:1042400004AFF860B9607A6000237B61EFF3058307
:104250007B627B6A002B40F09480EFF310833B621B
:104260003B6A002B40F08D80484B1B68022B06D127
:10427000EFF31183FB61FB69002B40F08280FB6848
:10428000002B7ED080233B631823FB620023FB7648
:1042900007F11B037B634FF0FF33BB627B68002B8E
:1042A00045D07B681B68002B02D07B681B687B6352
:1042B0007B689B69002B02D07B689B69FB62FB6A71
:1042C000002B08D0FB6A382B05D87B685B6803F0AD
:1042D0000103002B01D0002354E07B685B69002BB5
:1042E00003D07B685B699B083B637B689B68002B02
:1042F0000ED07B68DB685B2B0AD97B681B69002BBF
:1043000006D07B685B69002B02D00123BB6210E002
:104310007B689B68002B0CD17B68DB68002B08D185
:104320007B681B69002B04D10023BB6201E00023E2
:10433000BB62BB6A012B10D17B681B697A689268EB
:1043400002920193FB6A0093BB683A6B796BF86841
:1043500000F012FE03467B6113E0BB6A002B10D114
:104360003B6B9AB207F114030193FB6A0093BB689D
:10437000796BF86800F05CFE0346012B01D0002346
:104380007B617B6918463837BD4680BD94000020AC
:1043900080B586B000AF7860EFF305833B613B6981
:1043A000002B0FD1EFF31083FB60FB68002B09D1CA
:1043B0000D4B1B68022B09D1EFF31183BB60BB6867
:1043C000002B03D06FF005037B6107E000237B61C6
:1043D0007B68002B02D0786800F066FF7B69184686
:1043E0001837BD4680BD00BF9400002080B485B062
:1043F00000AFF860B9607A60FB68064A1A60BB6873
:10440000054A1A607B6880221A6000BF1437BD46D7
:1044100080BC704798000020F400002080B485B074
:1044200000AFF860B9607A60FB68074A1A60BB6841
:10443000064A1A607B684FF480721A6000BF143716
:10444000BD4680BC704700BFF4020020500300202E
:1044500080B483B000AF78607B6803F108027B68AA
:104460005A607B684FF0FF329A607B6803F1080264
:104470007B68DA607B6803F108027B681A617B68FD
:1044800000221A6000BF0C37BD4680BC704780B464
:1044900083B000AF78607B6800221A6100BF0C37E0
:1044A000BD4680BC704780B485B000AF786039608D
:1044B0007B685B68FB603B68FA685A60FB689A68D7
:1044C0003B689A60FB689B683A685A60FB683A6888
:1044D0009A603B687A681A617B681B685A1C7B6823
:1044E0001A6000BF1437BD4680BC704780B485B0E9
:1044F00000AF786039603B681B68BB60BB68B3F194
:10450000FF3F03D17B681B69FB600CE07B680833CD
:10451000FB6002E0FB685B68FB60FB685B681B6834
:10452000BA689A42F6D2FB685A683B685A603B68A0
:104530005B683A689A603B68FA689A60FB683A6818
:104540005A603B687A681A617B681B685A1C7B68F2
:104550001A6000BF1437BD4680BC704780B485B078
:1045600000AF78607B681B69FB607B685B687A687A
:1045700092689A607B689B687A6852685A60FB68A8
:104580005B687A689A4203D17B689A68FB685A60D4
:104590007B6800221A61FB681B685A1EFB681A6060
:1045A000FB681B6818461437BD4680BC7047000086
:1045B00080B584B000AF786039607B68FB60FB68D1
:1045C000002B0AD14FF0500383F31188BFF36F8F94
:1045D000BFF34F8FBB6000BFFEE701F0C7FFFB6872
:1045E0001A68FB68DB6BF968096C01FB03F31A447A
:1045F000FB685A60FB6800229A63FB681A68FB68D4
:104600009A60FB681A68FB68DB6B013BF968096C10
:1046100001FB03F31A44FB68DA60FB68FF2283F8AE
:104620004420FB68FF2283F845203B68002B14D10F
:10463000FB681B69002B1AD0FB681033184601F089
:10464000F1F80346002B12D00C4B4FF080521A6049
:10465000BFF34F8FBFF36F8F09E0FB68103318462D
:10466000FFF7F6FEFB6824331846FFF7F1FE01F072
:10467000ADFF012318461037BD4680BD04ED00E0B4
:1046800080B58EB002AFF860B9607A603B60FB68BD
:10469000002B0AD14FF0500383F31188BFF36F8FC3
:1046A000BFF34F8FBB6200BFFEE73B68002B0AD110
:1046B0004FF0500383F31188BFF36F8FBFF34F8F19
:1046C0007B6200BFFEE77B68002B02D0BB68002B3B
:1046D00001D0012300E00023002B0AD14FF050034A
:1046E00083F31188BFF36F8FBFF34F8F3B6200BF1F
:1046F000FEE77B68002B02D1BB68002B01D10123B0
:1047000000E00023002B0AD14FF0500383F31188FF
:10471000BFF36F8FBFF34F8FFB6100BFFEE75023E6
:104720007B617B69502B0AD04FF0500383F31188D3
:10473000BFF36F8FBFF34F8FBB6100BFFEE73B68D6
:10474000FB62FB6A002B0DD0FB6A012283F8462036
:1047500097F83820FB6A009313467A68B968F868BE
:1047600000F005F8FB6A18463037BD4680BD80B5BD
:1047700084B000AFF860B9607A60FB70BB68002B52
:1047800003D1BB69BA691A6002E0BB697A681A6032
:10479000BB69FA68DA63BB69BA681A640121B8694F
:1047A000FFF706FFBB69FA7883F84C2000BF10378B
:1047B000BD4680BD80B58EB000AFF860B9607A604C
:1047C0003B6000237B63FB683B633B6B002B0AD1A0
:1047D0004FF0500383F31188BFF36F8FBFF34F8FF8
:1047E000BB6200BFFEE7BB68002B03D13B6B1B6CB9
:1047F000002B01D1012300E00023002B0AD14FF050
:10480000500383F31188BFF36F8FBFF34F8F7B6229
:1048100000BFFEE73B68022B03D13B6BDB6B012B38
:1048200001D1012300E00023002B0AD14FF05003F7
:1048300083F31188BFF36F8FBFF34F8F3B6200BFCD
:10484000FEE701F0B1F90346002B02D17B68002B93
:1048500001D1012300E00023002B0AD14FF05003C7
:1048600083F31188BFF36F8FBFF34F8FFB6100BFDE
:10487000FEE701F07BFE3B6B9A6B3B6BDB6B9A4276
:1048800002D33B68022B29D13A68B968386B00F033
:1048900007FAF8623B6B5B6A002B10D03B6B24334A
:1048A000184600F0BFFF0346002B13D03F4B4FF0DC
:1048B00080521A60BFF34F8FBFF36F8F0AE0FB6A1D
:1048C000002B07D0394B4FF080521A60BFF34F8F47
:1048D000BFF36F8F01F07AFE012363E07B68002B4A
:1048E00003D101F073FE00235CE07B6B002B06D14B
:1048F00007F11403184600F0F9FF01237B6301F070
:1049000065FE00F06BFD01F031FE3B6B93F8443027
:104910005BB2B3F1FF3F03D13B6B002283F844202D
:104920003B6B93F845305BB2B3F1FF3F03D13B6B78
:10493000002283F8452001F049FE3A1D07F11403D7
:104940001146184600F0E8FF0346002B24D1386BCF
:1049500000F09EFA0346002B18D03B6B10337A68A8
:104960001146184600F00EFF386B00F029FA00F0EF
:1049700043FD0346002B7FF47CAF0C4B4FF080527D
:104980001A60BFF34F8FBFF36F8F72E7386B00F081
:1049900017FA00F031FD6CE7386B00F011FA00F007
:1049A0002BFD002318463837BD4680BD04ED00E0DE
:1049B00080B58EB000AFF860B9607A603B60FB688C
:1049C0003B633B6B002B0AD14FF0500383F31188FC
:1049D000BFF36F8FBFF34F8F7B6200BFFEE7BB68F3
:1049E000002B03D13B6B1B6C002B01D1012300E09A
:1049F0000023002B0AD14FF0500383F31188BFF33B
:104A00006F8FBFF34F8F3B6200BFFEE73B68022B07
:104A100003D13B6BDB6B012B01D1012300E00023B1
:104A2000002B0AD14FF0500383F31188BFF36F8F2F
:104A3000BFF34F8FFB6100BFFEE701F059FEEFF3BC
:104A400011824FF0500383F31188BFF36F8FBFF3D0
:104A50004F8FBA617B61BB69FB623B6B9A6B3B6BAF
:104A6000DB6B9A4202D33B68022B2CD13B6B93F851
:104A7000453087F82B303A68B968386B00F010F988
:104A800097F92B30B3F1FF3F12D13B6B5B6A002BE0
:104A900016D03B6B2433184600F0C4FE0346002BAF
:104AA0000ED07B68002B0BD07B6801221A6007E0D8
:104AB00097F82B300133DBB25AB23B6B83F84520B9
:104AC00001237B6301E000237B63FB6A3B613B695D
:104AD00083F3118800BF7B6B18463837BD4680BD15
:104AE00080B58CB000AFF860B9607A600023FB62DB
:104AF000FB68BB62BB6A002B0AD14FF0500383F303
:104B00001188BFF36F8FBFF34F8F3B6200BFFEE78B
:104B1000BB68002B03D1BB6A1B6C002B01D10123A6
:104B200000E00023002B0AD14FF0500383F31188DB
:104B3000BFF36F8FBFF34F8FFB6100BFFEE701F044
:104B400033F80346002B02D17B68002B01D10123EF
:104B500000E00023002B0AD14FF0500383F31188AB
:104B6000BFF36F8FBFF34F8FBB6100BFFEE701F054
:104B7000FDFCBB6A9B6B7B627B6A002B1FD0B96814
:104B8000B86A00F0F7F87B6A5A1EBB6A9A63BB6A80
:104B90001B69002B0FD0BB6A1033184600F042FE91
:104BA0000346002B07D03D4B4FF080521A60BFF3F5
:104BB0004F8FBFF36F8F01F009FD012369E07B6820
:104BC000002B03D101F002FD002362E0FB6A002B01
:104BD00006D107F11003184600F088FE0123FB629E
:104BE00001F0F4FC00F0FAFB01F0C0FCBB6A93F8A2
:104BF00044305BB2B3F1FF3F03D1BB6A002283F8BC
:104C00004420BB6A93F845305BB2B3F1FF3F03D158
:104C1000BB6A002283F8452001F0D8FC3A1D07F159
:104C200010031146184600F077FE0346002B23D1EF
:104C3000B86A00F017F90346002B17D0BB6A24337B
:104C40007A681146184600F09DFDB86A00F0B8F881
:104C500000F0D2FB0346002B89D1104B4FF080525D
:104C60001A60BFF34F8FBFF36F8F80E7B86A00F011
:104C7000A7F800F0C1FB7AE7B86A00F0A1F800F0ED
:104C8000BBFBB86A00F0EEF80346002B3FF46FAFB1
:104C9000002318463037BD4680BD00BF04ED00E05C
:104CA00080B586B000AFF860B9607A6000237B61A0
:104CB000FB689B6B3B61FB681B6C002B0DD1FB6899
:104CC0001B68002B4DD1FB685B68184600F08AFF1B
:104CD0007861FB6800225A6043E07B68002B19D1A1
:104CE000FB689868FB681B6C1A46B96801F040FFC6
:104CF000FB689A68FB681B6C1A44FB689A60FB6847
:104D00009A68FB685B689A422BD3FB681A68FB6859
:104D10009A6026E0FB68D868FB681B6C1A46B96885
:104D200001F026FFFB68DA68FB681B6C5B421A44E3
:104D3000FB68DA60FB68DA68FB681B689A4207D296
:104D4000FB685A68FB681B6C5B421A44FB68DA60BC
:104D50007B68022B05D13B69002B02D03B69013BEC
:104D60003B613B695A1CFB689A637B69184618379C
:104D7000BD4680BD80B582B000AF786039607B6889
:104D80001B6C002B18D07B68DA687B681B6C1A449C
:104D90007B68DA607B68DA687B685B689A4203D379
:104DA0007B681A687B68DA607B68D9687B681B6CF3
:104DB0001A46386801F0DCFE00BF0837BD4680BDEA
:104DC00080B584B000AF786001F0D0FB7B6893F8C9
:104DD0004530FB7311E07B685B6A002B12D07B6867
:104DE0002433184600F01EFD0346002B01D000F0CE
:104DF000F5FDFB7B013BDBB2FB7397F90F30002B1A
:104E0000E9DC00E000BF7B68FF2283F8452001F069
:104E1000DDFB01F0ABFB7B6893F84430BB7311E022
:104E20007B681B69002B12D07B681033184600F09A
:104E3000F9FC0346002B01D000F0D0FDBB7B013B09
:104E4000DBB2BB7397F90E30002BE9DC00E000BF4A
:104E50007B68FF2283F8442001F0B8FB00BF1037C5
:104E6000BD4680BD80B584B000AF786001F07EFBA8
:104E70007B689B6B002B02D10123FB6001E00023C8
:104E8000FB6001F0A3FBFB6818461037BD4680BDF0
:104E900080B584B000AF786001F068FB7B689A6BE6
:104EA0007B68DB6B9A4202D10123FB6001E00023A7
:104EB000FB6001F08BFBFB6818461037BD4680BDD8
:104EC00080B485B000AF786039600023FB6014E0E7
:104ED0000E4AFB6852F83330002B0BD10B49FB68AC
:104EE0003A6841F83320094AFB68DB0013447A68CA
:104EF0005A6006E0FB680133FB60FB68072BE7D9CB
:104F000000BF00BF1437BD4680BC70472C1F002077
:104F100080B586B000AFF860B9607A60FB687B61ED
:104F200001F024FB7B6993F844305BB2B3F1FF3F9F
:104F300003D17B69002283F844207B6993F84530D4
:104F40005BB2B3F1FF3F03D17B69002283F84520B8
:104F500001F03CFB7B699B6B002B06D17B69243302
:104F60007A68B968184600F031FC7869FFF728FFC5
:104F700000BF1837BD4680BD80B58EB004AFF86065
:104F8000B9607A603B607B6B002B0AD14FF0500315
:104F900083F31188BFF36F8FBFF34F8F3B6200BF66
:104FA000FEE7BB6B002B0AD14FF0500383F311884F
:104FB000BFF36F8FBFF34F8FFB6100BFFEE75C2332
:104FC0003B613B695C2B0AD04FF0500383F311889F
:104FD000BFF36F8FBFF34F8FBB6100BFFEE7BB6BAB
:104FE000002B1ED07B6B002B1BD0BB6B7B627B6AC4
:104FF0007A6B1A637B6A022283F859200023039399
:105000007B6A029307F1140301933B6B00933B68A7
:105010007A68B968F86800F050F8786A00F0D4F857
:1050200001E000237B617B6918462837BD4680BDBF
:1050300080B58CB004AFF860B9603B601346FB806C
:10504000FB889B00184601F091FB78617B69002B7F
:105050000ED05C2001F08AFBF861FB69002B03D0C5
:10506000FB697A691A6305E0786901F043FC01E0A5
:105070000023FB61FB69002B17D0FB69002283F83A
:105080005920FA8800230393FB690293FB6A01937A
:10509000BB6A00933B68B968F86800F00EF8F869DD
:1050A00000F092F80123BB6102E04FF0FF33BB61D7
:1050B000BB6918462037BD4680BD80B588B000AFBB
:1050C000F860B9607A603B603B6B186B7B689B0053
:1050D0001A46A52101F05AFD3B6B1A6B7B6803F160
:1050E0008043013B9B001344BB61BB6923F0070372
:1050F000BB61BB6903F00703002B0AD04FF05003DC
:1051000083F31188BFF36F8FBFF34F8F7B6100BFB5
:10511000FEE70023FB6112E0BA68FB6913441978CB
:105120003A6BFB69134434330A461A70BA68FB6958
:1051300013441B78002B06D0FB690133FB61FB692C
:105140000F2BE9D900E000BF3B6B002283F843201E
:10515000BB6A372B01D93723BB623B6BBA6ADA6271
:105160003B6BBA6ADA643B6B00221A653B6B043313
:105170001846FFF78CF93B6B18331846FFF787F991
:105180003B6B3A6B1A61BB6AC3F138023B6B9A61A5
:105190003B6B3A6B5A623B6B00225A653B6B0022B9
:1051A00083F858203A68F968B86901F0EFF80246C8
:1051B0003B6B1A60FB6A002B02D0FB6A3A6B1A60E9
:1051C00000BF2037BD4680BD80B582B000AF78609B
:1051D00001F0CCF92D4B1B6801332C4A13602C4B8A
:1051E0001B68002B09D12A4A7B681360274B1B6878
:1051F000012B10D100F016FC0DE0264B1B68002B94
:1052000009D1234B1B68DA6A7B68DB6A9A4202D8B1
:105210001F4A7B681360204B1B6801331E4A1360D2
:105220001D4B1A687B685A647B68DA6A1B4B1B68E3
:105230009A4203D97B68DB6A184A13607B68DA6A92
:1052400013469B0013449B00154A1A447B680433A1
:1052500019461046FFF727F901F0B8F90D4B1B6806
:10526000002B0ED00A4B1B68DA6A7B68DB6A9A4215
:1052700007D20C4B4FF080521A60BFF34F8FBFF331
:105280006F8F00BF0837BD4680BD00BF240C0020D3
:1052900050070020300C0020400C00202C0C002077
:1052A0005407002004ED00E080B584B000AF7860C2
:1052B0000023FB607B68002B17D0134B1B68002B6F
:1052C0000AD04FF0500383F31188BFF36F8FBFF301
:1052D0004F8FBB6000BFFEE700F080F800217868C8
:1052E00000F0EEFC00F088F8F860FB68002B07D1B6
:1052F000064B4FF080521A60BFF34F8FBFF36F8F92
:1053000000BF1037BD4680BD4C0C002004ED00E00E
:1053100080B58AB004AF0023BB6000237B603A46AF
:10532000391D07F108031846FFF760F839687B68F4
:10533000BA68029201930023009300230A46214990
:105340002148FFF719FE0346204A13601F4B1B68D4
:10535000002B02D001237B6101E000237B617B698C
:10536000012B02D100F000FD78617B69012B16D181
:105370004FF0500383F31188BFF36F8FBFF34F8F4C
:105380003B6100BF124B4FF0FF321A60114B0122FC
:105390001A60114B00221A6001F076F80EE07B696A
:1053A000B3F1FF3F0AD14FF0500383F31188BFF3ED
:1053B0006F8FBFF34F8FFB6000BFFEE700BF183752
:1053C000BD4680BD38740008F5590008480C00201F
:1053D000440C0020300C0020280C002080B400AFCA
:1053E000044B1B680133034A136000BFBD4680BCF9
:1053F000704700BF4C0C002080B584B000AF002384
:10540000FB600023BB60424B1B68002B0AD14FF0AE
:10541000500383F31188BFF36F8FBFF34F8F3B604F
:1054200000BFFEE701F0A2F8394B1B68013B384A88
:105430001360374B1B68002B62D1364B1B68002B67
:105440005ED02FE0344BDB68DB68FB60FB68183311
:105450001846FFF783F8FB6804331846FFF77EF819
:10546000FB68DA6A2D4B1B689A4203D9FB68DB6A3A
:105470002A4A1360FB68DA6A13469B0013449B00B8
:10548000274A1A44FB68043319461046FFF70BF805
:10549000FB68DA6A234B1B68DB6A9A4202D3224B11
:1054A00001221A601C4B1B68002BCBD1FB68002B20
:1054B00001D000F055FB1D4B1B687B607B68002B07
:1054C00010D000F045F80346002B02D0164B012205
:1054D0001A607B68013B7B607B68002BF1D1134B2A
:1054E00000221A60104B1B68002B09D00123BB60FF
:1054F0000F4B4FF080521A60BFF34F8FBFF36F8F87
:1055000001F064F8BB6818461037BD4680BD00BF87
:105510004C0C0020240C0020E40B00202C0C00205C
:105520005407002050070020380C0020340C0020C5
:1055300004ED00E080B483B000AF044B1B687B60D7
:105540007B6818460C37BD4680BC7047280C00208D
:1055500080B586B000AF00237B61514B1B68002BE8
:1055600040F08E804F4B1B6801333B614D4A3B69D5
:1055700013603B69002B20D14B4B1B681B68002B31
:105580000AD04FF0500383F31188BFF36F8FBFF33E
:105590004F8F3B6000BFFEE7434B1B68FB60434BF4
:1055A0001B68414A1360414AFB681360404B1B680B
:1055B00001333F4A136000F0D3FA3E4B1B683A694F
:1055C0009A424ED3384B1B681B68002B01D1012334
:1055D00000E00023002B04D0364B4FF0FF321A605E
:1055E0003FE0314B1B68DB68DB68BB60BB685B6816
:1055F0007B603A697B689A4203D22E4A7B681360CB
:105600002FE0BB6804331846FEF7A8FFBB689B6A0F
:10561000002B04D0BB6818331846FEF79FFFBB6809
:10562000DA6A254B1B689A4203D9BB68DB6A224AB7
:105630001360BB68DA6A13469B0013449B001F4A41
:105640001A44BB68043319461046FEF72CFFBB68AA
:10565000DA6A1B4B1B68DB6A9A42B3D301237B6176
:10566000B0E7174B1B68DA6A144913469B001344D2
:105670009B000B441B68012B07D901237B6104E0CD
:10568000104B1B6801330F4A13600F4B1B68002B34
:1056900001D001237B617B6918461837BD4680BD68
:1056A0004C0C0020280C0020DC0B0020E00B00201C
:1056B0003C0C0020440C00202C0C0020540700203F
:1056C00050070020340C0020380C002080B485B036
:1056D00000AF274B1B68002B03D0264B01221A601A
:1056E00041E0244B00221A60234B1B68FB6010E052
:1056F000FB68002B0AD14FF0500383F31188BFF3EE
:105700006F8FBFF34F8F7B6000BFFEE7FB68013BED
:10571000FB601A49FA6813469B0013449B000B4434
:105720001B68002BE4D0FA6813469B0013449B00CF
:10573000124A1344BB60BB685B685A68BB685A6016
:10574000BB685A68BB6808339A4204D1BB685B687F
:105750005A68BB685A60BB685B68DB68084A1360BC
:10576000054AFB68136000BF1437BD4680BC704714
:105770004C0C0020380C00202C0C0020540700207A
:105780005007002080B584B000AF786039607B6836
:10579000002B0AD14FF0500383F31188BFF36F8FB2
:1057A000BFF34F8FFB6000BFFEE7074B1B6818334A
:1057B00019467868FEF79AFE0121386800F080FAF1
:1057C00000BF1037BD4680BD5007002080B586B0B1
:1057D00000AFF860B9607A60FB68002B0AD14FF027
:1057E000500383F31188BFF36F8FBFF34F8F7B613B
:1057F00000BFFEE70A4B1B6818331946F868FEF72E
:1058000052FE7B68002B02D04FF0FF33BB607968FB
:10581000B86800F055FA00BF1837BD4680BD00BF1C
:105820005007002080B586B000AF78607B68DB68E9
:10583000DB683B613B69002B0AD14FF0500383F3D7
:105840001188BFF36F8FBFF34F8FFB6000BFFEE780
:105850003B6918331846FEF781FE1E4B1B68002B70
:105860001DD13B6904331846FEF778FE3B69DA6ABE
:10587000194B1B689A4203D93B69DB6A164A1360CD
:105880003B69DA6A13469B0013449B00134A1A448F
:105890003B69043319461046FEF705FE05E03B69F7
:1058A000183319460E48FEF7FEFD3B69DA6A0D4BC8
:1058B0001B68DB6A9A4205D901237B610A4B0122EE
:1058C0001A6001E000237B617B6918461837BD46EA
:1058D00080BD00BF4C0C00202C0C00205407002081
:1058E000E40B002050070020380C002080B483B067
:1058F00000AF7860064B1A687B681A60054B1A681F
:105900007B685A6000BF0C37BD4680BC704700BF43
:105910003C0C0020280C002080B588B000AF7860D7
:1059200039607B68002B0AD14FF0500383F3118854
:10593000BFF36F8FBFF34F8F3B6100BFFEE73B6844
:10594000002B0AD14FF0500383F31188BFF36F8F00
:10595000BFF34F8FFB6000BFFEE700F007FE1D4B5B
:105960001B68BB617B685B68BA69D31A7B613B6863
:105970001B68B3F1FF3F02D10023FB6123E07B688A
:105980001A68154B1B689A4207D07B685B68BA6936
:105990009A4202D30123FB6115E03B681B687A69D8
:1059A0009A420BD23B681A687B69D21A3B681A602C
:1059B0007868FFF79BFF0023FB6104E03B6800224F
:1059C0001A600123FB6100F001FEFB6918462037D5
:1059D000BD4680BD280C00203C0C002080B400AFE8
:1059E000034B01221A6000BFBD4680BC704700BF58
:1059F000380C002080B582B000AF786000F052F81B
:105A0000064B1B68012BF9D9054B4FF080521A60E9
:105A1000BFF34F8FBFF36F8FF0E700BF5407002035
:105A200004ED00E080B582B000AF00237B600CE0A5
:105A30007A6813469B0013449B00124A134418468D
:105A4000FEF706FD7B6801337B607B68372BEFD95F
:105A50000D48FEF7FDFC0D48FEF7FAFC0C48FEF77A
:105A6000F7FC0C48FEF7F4FC0B48FEF7F1FC0B4B7F
:105A7000054A1A600A4B054A1A6000BF0837BD463E
:105A800080BD00BF54070020B40B0020C80B0020CD
:105A9000E40B0020F80B0020100C0020DC0B002091
:105AA000E00B002080B582B000AF19E000F05EFD91
:105AB000104BDB68DB687B607B6804331846FEF7BD
:105AC0004DFD0D4B1B68013B0B4A13600B4B1B68D4
:105AD000013B0A4A136000F079FD786800F010F885
